{
  "contractName": "iTokenRebaser",
  "abi": [
    {
      "inputs": [
        {
          "internalType": "address",
          "name": "itokenAddress_",
          "type": "address"
        },
        {
          "internalType": "address",
          "name": "reserveToken_",
          "type": "address"
        },
        {
          "internalType": "address",
          "name": "uniswap_factory",
          "type": "address"
        },
        {
          "internalType": "address",
          "name": "reservesContract_",
          "type": "address"
        },
        {
          "internalType": "address",
          "name": "publicGoods_",
          "type": "address"
        },
        {
          "internalType": "uint256",
          "name": "publicGoodsPerc_",
          "type": "uint256"
        }
      ],
      "payable": false,
      "stateMutability": "nonpayable",
      "type": "constructor"
    },
    {
      "anonymous": false,
      "inputs": [
        {
          "indexed": false,
          "internalType": "uint256",
          "name": "oldDeviationThreshold",
          "type": "uint256"
        },
        {
          "indexed": false,
          "internalType": "uint256",
          "name": "newDeviationThreshold",
          "type": "uint256"
        }
      ],
      "name": "NewDeviationThreshold",
      "type": "event"
    },
    {
      "anonymous": false,
      "inputs": [
        {
          "indexed": false,
          "internalType": "address",
          "name": "oldGov",
          "type": "address"
        },
        {
          "indexed": false,
          "internalType": "address",
          "name": "newGov",
          "type": "address"
        }
      ],
      "name": "NewGov",
      "type": "event"
    },
    {
      "anonymous": false,
      "inputs": [
        {
          "indexed": false,
          "internalType": "uint256",
          "name": "oldSlippageFactor",
          "type": "uint256"
        },
        {
          "indexed": false,
          "internalType": "uint256",
          "name": "newSlippageFactor",
          "type": "uint256"
        }
      ],
      "name": "NewMaxSlippageFactor",
      "type": "event"
    },
    {
      "anonymous": false,
      "inputs": [
        {
          "indexed": false,
          "internalType": "address",
          "name": "oldPendingGov",
          "type": "address"
        },
        {
          "indexed": false,
          "internalType": "address",
          "name": "newPendingGov",
          "type": "address"
        }
      ],
      "name": "NewPendingGov",
      "type": "event"
    },
    {
      "anonymous": false,
      "inputs": [
        {
          "indexed": false,
          "internalType": "uint256",
          "name": "oldRebaseMintPerc",
          "type": "uint256"
        },
        {
          "indexed": false,
          "internalType": "uint256",
          "name": "newRebaseMintPerc",
          "type": "uint256"
        }
      ],
      "name": "NewRebaseMintPercent",
      "type": "event"
    },
    {
      "anonymous": false,
      "inputs": [
        {
          "indexed": false,
          "internalType": "address",
          "name": "oldReserveContract",
          "type": "address"
        },
        {
          "indexed": false,
          "internalType": "address",
          "name": "newReserveContract",
          "type": "address"
        }
      ],
      "name": "NewReserveContract",
      "type": "event"
    },
    {
      "anonymous": false,
      "inputs": [
        {
          "indexed": true,
          "internalType": "address",
          "name": "destination",
          "type": "address"
        },
        {
          "indexed": false,
          "internalType": "uint256",
          "name": "index",
          "type": "uint256"
        },
        {
          "indexed": false,
          "internalType": "bytes",
          "name": "data",
          "type": "bytes"
        }
      ],
      "name": "TransactionFailed",
      "type": "event"
    },
    {
      "anonymous": false,
      "inputs": [
        {
          "indexed": false,
          "internalType": "uint256",
          "name": "reservesAdded",
          "type": "uint256"
        },
        {
          "indexed": false,
          "internalType": "uint256",
          "name": "itokensSold",
          "type": "uint256"
        },
        {
          "indexed": false,
          "internalType": "uint256",
          "name": "itokensFromReserves",
          "type": "uint256"
        },
        {
          "indexed": false,
          "internalType": "uint256",
          "name": "itokensToReserves",
          "type": "uint256"
        }
      ],
      "name": "TreasuryIncreased",
      "type": "event"
    },
    {
      "constant": true,
      "inputs": [],
      "name": "BASE",
      "outputs": [
        {
          "internalType": "uint256",
          "name": "",
          "type": "uint256"
        }
      ],
      "payable": false,
      "stateMutability": "view",
      "type": "function"
    },
    {
      "constant": true,
      "inputs": [],
      "name": "MAX_MINT_PERC_PARAM",
      "outputs": [
        {
          "internalType": "uint256",
          "name": "",
          "type": "uint256"
        }
      ],
      "payable": false,
      "stateMutability": "view",
      "type": "function"
    },
    {
      "constant": true,
      "inputs": [],
      "name": "MAX_SLIPPAGE_PARAM",
      "outputs": [
        {
          "internalType": "uint256",
          "name": "",
          "type": "uint256"
        }
      ],
      "payable": false,
      "stateMutability": "view",
      "type": "function"
    },
    {
      "constant": true,
      "inputs": [
        {
          "internalType": "uint256",
          "name": "",
          "type": "uint256"
        }
      ],
      "name": "balGulpPairs",
      "outputs": [
        {
          "internalType": "address",
          "name": "",
          "type": "address"
        }
      ],
      "payable": false,
      "stateMutability": "view",
      "type": "function"
    },
    {
      "constant": true,
      "inputs": [],
      "name": "blockTimestampLast",
      "outputs": [
        {
          "internalType": "uint32",
          "name": "",
          "type": "uint32"
        }
      ],
      "payable": false,
      "stateMutability": "view",
      "type": "function"
    },
    {
      "constant": true,
      "inputs": [],
      "name": "deviationThreshold",
      "outputs": [
        {
          "internalType": "uint256",
          "name": "",
          "type": "uint256"
        }
      ],
      "payable": false,
      "stateMutability": "view",
      "type": "function"
    },
    {
      "constant": true,
      "inputs": [],
      "name": "epoch",
      "outputs": [
        {
          "internalType": "uint256",
          "name": "",
          "type": "uint256"
        }
      ],
      "payable": false,
      "stateMutability": "view",
      "type": "function"
    },
    {
      "constant": true,
      "inputs": [],
      "name": "gov",
      "outputs": [
        {
          "internalType": "address",
          "name": "",
          "type": "address"
        }
      ],
      "payable": false,
      "stateMutability": "view",
      "type": "function"
    },
    {
      "constant": true,
      "inputs": [],
      "name": "isToken0",
      "outputs": [
        {
          "internalType": "bool",
          "name": "",
          "type": "bool"
        }
      ],
      "payable": false,
      "stateMutability": "view",
      "type": "function"
    },
    {
      "constant": true,
      "inputs": [],
      "name": "itokenAddress",
      "outputs": [
        {
          "internalType": "address",
          "name": "",
          "type": "address"
        }
      ],
      "payable": false,
      "stateMutability": "view",
      "type": "function"
    },
    {
      "constant": true,
      "inputs": [],
      "name": "lastRebaseTimestampSec",
      "outputs": [
        {
          "internalType": "uint256",
          "name": "",
          "type": "uint256"
        }
      ],
      "payable": false,
      "stateMutability": "view",
      "type": "function"
    },
    {
      "constant": true,
      "inputs": [],
      "name": "maxSlippageFactor",
      "outputs": [
        {
          "internalType": "uint256",
          "name": "",
          "type": "uint256"
        }
      ],
      "payable": false,
      "stateMutability": "view",
      "type": "function"
    },
    {
      "constant": true,
      "inputs": [],
      "name": "minRebaseTimeIntervalSec",
      "outputs": [
        {
          "internalType": "uint256",
          "name": "",
          "type": "uint256"
        }
      ],
      "payable": false,
      "stateMutability": "view",
      "type": "function"
    },
    {
      "constant": true,
      "inputs": [],
      "name": "pendingGov",
      "outputs": [
        {
          "internalType": "address",
          "name": "",
          "type": "address"
        }
      ],
      "payable": false,
      "stateMutability": "view",
      "type": "function"
    },
    {
      "constant": true,
      "inputs": [],
      "name": "priceCumulativeLast",
      "outputs": [
        {
          "internalType": "uint256",
          "name": "",
          "type": "uint256"
        }
      ],
      "payable": false,
      "stateMutability": "view",
      "type": "function"
    },
    {
      "constant": true,
      "inputs": [],
      "name": "publicGoods",
      "outputs": [
        {
          "internalType": "address",
          "name": "",
          "type": "address"
        }
      ],
      "payable": false,
      "stateMutability": "view",
      "type": "function"
    },
    {
      "constant": true,
      "inputs": [],
      "name": "publicGoodsPerc",
      "outputs": [
        {
          "internalType": "uint256",
          "name": "",
          "type": "uint256"
        }
      ],
      "payable": false,
      "stateMutability": "view",
      "type": "function"
    },
    {
      "constant": true,
      "inputs": [],
      "name": "rebaseDelay",
      "outputs": [
        {
          "internalType": "uint256",
          "name": "",
          "type": "uint256"
        }
      ],
      "payable": false,
      "stateMutability": "view",
      "type": "function"
    },
    {
      "constant": true,
      "inputs": [],
      "name": "rebaseLag",
      "outputs": [
        {
          "internalType": "uint256",
          "name": "",
          "type": "uint256"
        }
      ],
      "payable": false,
      "stateMutability": "view",
      "type": "function"
    },
    {
      "constant": true,
      "inputs": [],
      "name": "rebaseMintPerc",
      "outputs": [
        {
          "internalType": "uint256",
          "name": "",
          "type": "uint256"
        }
      ],
      "payable": false,
      "stateMutability": "view",
      "type": "function"
    },
    {
      "constant": true,
      "inputs": [],
      "name": "rebaseWindowLengthSec",
      "outputs": [
        {
          "internalType": "uint256",
          "name": "",
          "type": "uint256"
        }
      ],
      "payable": false,
      "stateMutability": "view",
      "type": "function"
    },
    {
      "constant": true,
      "inputs": [],
      "name": "rebaseWindowOffsetSec",
      "outputs": [
        {
          "internalType": "uint256",
          "name": "",
          "type": "uint256"
        }
      ],
      "payable": false,
      "stateMutability": "view",
      "type": "function"
    },
    {
      "constant": true,
      "inputs": [],
      "name": "rebasingActive",
      "outputs": [
        {
          "internalType": "bool",
          "name": "",
          "type": "bool"
        }
      ],
      "payable": false,
      "stateMutability": "view",
      "type": "function"
    },
    {
      "constant": true,
      "inputs": [],
      "name": "reserveToken",
      "outputs": [
        {
          "internalType": "address",
          "name": "",
          "type": "address"
        }
      ],
      "payable": false,
      "stateMutability": "view",
      "type": "function"
    },
    {
      "constant": true,
      "inputs": [],
      "name": "reservesContract",
      "outputs": [
        {
          "internalType": "address",
          "name": "",
          "type": "address"
        }
      ],
      "payable": false,
      "stateMutability": "view",
      "type": "function"
    },
    {
      "constant": true,
      "inputs": [],
      "name": "targetRate",
      "outputs": [
        {
          "internalType": "uint256",
          "name": "",
          "type": "uint256"
        }
      ],
      "payable": false,
      "stateMutability": "view",
      "type": "function"
    },
    {
      "constant": true,
      "inputs": [],
      "name": "timeOfTWAPInit",
      "outputs": [
        {
          "internalType": "uint256",
          "name": "",
          "type": "uint256"
        }
      ],
      "payable": false,
      "stateMutability": "view",
      "type": "function"
    },
    {
      "constant": true,
      "inputs": [
        {
          "internalType": "uint256",
          "name": "",
          "type": "uint256"
        }
      ],
      "name": "transactions",
      "outputs": [
        {
          "internalType": "bool",
          "name": "enabled",
          "type": "bool"
        },
        {
          "internalType": "address",
          "name": "destination",
          "type": "address"
        },
        {
          "internalType": "bytes",
          "name": "data",
          "type": "bytes"
        }
      ],
      "payable": false,
      "stateMutability": "view",
      "type": "function"
    },
    {
      "constant": true,
      "inputs": [
        {
          "internalType": "uint256",
          "name": "",
          "type": "uint256"
        }
      ],
      "name": "uniSyncPairs",
      "outputs": [
        {
          "internalType": "address",
          "name": "",
          "type": "address"
        }
      ],
      "payable": false,
      "stateMutability": "view",
      "type": "function"
    },
    {
      "constant": true,
      "inputs": [],
      "name": "uniswap_pair",
      "outputs": [
        {
          "internalType": "address",
          "name": "",
          "type": "address"
        }
      ],
      "payable": false,
      "stateMutability": "view",
      "type": "function"
    },
    {
      "constant": false,
      "inputs": [
        {
          "internalType": "uint256",
          "name": "index",
          "type": "uint256"
        }
      ],
      "name": "removeUniPair",
      "outputs": [],
      "payable": false,
      "stateMutability": "nonpayable",
      "type": "function"
    },
    {
      "constant": false,
      "inputs": [
        {
          "internalType": "uint256",
          "name": "index",
          "type": "uint256"
        }
      ],
      "name": "removeBalPair",
      "outputs": [],
      "payable": false,
      "stateMutability": "nonpayable",
      "type": "function"
    },
    {
      "constant": false,
      "inputs": [
        {
          "internalType": "address[]",
          "name": "uniSyncPairs_",
          "type": "address[]"
        },
        {
          "internalType": "address[]",
          "name": "balGulpPairs_",
          "type": "address[]"
        }
      ],
      "name": "addSyncPairs",
      "outputs": [],
      "payable": false,
      "stateMutability": "nonpayable",
      "type": "function"
    },
    {
      "constant": true,
      "inputs": [],
      "name": "getUniSyncPairs",
      "outputs": [
        {
          "internalType": "address[]",
          "name": "",
          "type": "address[]"
        }
      ],
      "payable": false,
      "stateMutability": "view",
      "type": "function"
    },
    {
      "constant": true,
      "inputs": [],
      "name": "getBalGulpPairs",
      "outputs": [
        {
          "internalType": "address[]",
          "name": "",
          "type": "address[]"
        }
      ],
      "payable": false,
      "stateMutability": "view",
      "type": "function"
    },
    {
      "constant": false,
      "inputs": [
        {
          "internalType": "address",
          "name": "publicGoods_",
          "type": "address"
        }
      ],
      "name": "setPublicGoods",
      "outputs": [],
      "payable": false,
      "stateMutability": "nonpayable",
      "type": "function"
    },
    {
      "constant": false,
      "inputs": [
        {
          "internalType": "uint256",
          "name": "publicGoodsPerc_",
          "type": "uint256"
        }
      ],
      "name": "setPublicGoodsPerc",
      "outputs": [],
      "payable": false,
      "stateMutability": "nonpayable",
      "type": "function"
    },
    {
      "constant": false,
      "inputs": [
        {
          "internalType": "uint256",
          "name": "maxSlippageFactor_",
          "type": "uint256"
        }
      ],
      "name": "setMaxSlippageFactor",
      "outputs": [],
      "payable": false,
      "stateMutability": "nonpayable",
      "type": "function"
    },
    {
      "constant": false,
      "inputs": [
        {
          "internalType": "uint256",
          "name": "rebaseMintPerc_",
          "type": "uint256"
        }
      ],
      "name": "setRebaseMintPerc",
      "outputs": [],
      "payable": false,
      "stateMutability": "nonpayable",
      "type": "function"
    },
    {
      "constant": false,
      "inputs": [
        {
          "internalType": "address",
          "name": "reservesContract_",
          "type": "address"
        }
      ],
      "name": "setReserveContract",
      "outputs": [],
      "payable": false,
      "stateMutability": "nonpayable",
      "type": "function"
    },
    {
      "constant": false,
      "inputs": [
        {
          "internalType": "address",
          "name": "pendingGov_",
          "type": "address"
        }
      ],
      "name": "_setPendingGov",
      "outputs": [],
      "payable": false,
      "stateMutability": "nonpayable",
      "type": "function"
    },
    {
      "constant": false,
      "inputs": [],
      "name": "_acceptGov",
      "outputs": [],
      "payable": false,
      "stateMutability": "nonpayable",
      "type": "function"
    },
    {
      "constant": false,
      "inputs": [],
      "name": "init_twap",
      "outputs": [],
      "payable": false,
      "stateMutability": "nonpayable",
      "type": "function"
    },
    {
      "constant": false,
      "inputs": [],
      "name": "activate_rebasing",
      "outputs": [],
      "payable": false,
      "stateMutability": "nonpayable",
      "type": "function"
    },
    {
      "constant": false,
      "inputs": [],
      "name": "rebase",
      "outputs": [],
      "payable": false,
      "stateMutability": "nonpayable",
      "type": "function"
    },
    {
      "constant": false,
      "inputs": [
        {
          "internalType": "address",
          "name": "sender",
          "type": "address"
        },
        {
          "internalType": "uint256",
          "name": "amount0",
          "type": "uint256"
        },
        {
          "internalType": "uint256",
          "name": "amount1",
          "type": "uint256"
        },
        {
          "internalType": "bytes",
          "name": "data",
          "type": "bytes"
        }
      ],
      "name": "uniswapV2Call",
      "outputs": [],
      "payable": false,
      "stateMutability": "nonpayable",
      "type": "function"
    },
    {
      "constant": true,
      "inputs": [],
      "name": "getCurrentTWAP",
      "outputs": [
        {
          "internalType": "uint256",
          "name": "",
          "type": "uint256"
        }
      ],
      "payable": false,
      "stateMutability": "view",
      "type": "function"
    },
    {
      "constant": false,
      "inputs": [
        {
          "internalType": "uint256",
          "name": "deviationThreshold_",
          "type": "uint256"
        }
      ],
      "name": "setDeviationThreshold",
      "outputs": [],
      "payable": false,
      "stateMutability": "nonpayable",
      "type": "function"
    },
    {
      "constant": false,
      "inputs": [
        {
          "internalType": "uint256",
          "name": "rebaseLag_",
          "type": "uint256"
        }
      ],
      "name": "setRebaseLag",
      "outputs": [],
      "payable": false,
      "stateMutability": "nonpayable",
      "type": "function"
    },
    {
      "constant": false,
      "inputs": [
        {
          "internalType": "uint256",
          "name": "targetRate_",
          "type": "uint256"
        }
      ],
      "name": "setTargetRate",
      "outputs": [],
      "payable": false,
      "stateMutability": "nonpayable",
      "type": "function"
    },
    {
      "constant": false,
      "inputs": [
        {
          "internalType": "uint256",
          "name": "minRebaseTimeIntervalSec_",
          "type": "uint256"
        },
        {
          "internalType": "uint256",
          "name": "rebaseWindowOffsetSec_",
          "type": "uint256"
        },
        {
          "internalType": "uint256",
          "name": "rebaseWindowLengthSec_",
          "type": "uint256"
        }
      ],
      "name": "setRebaseTimingParameters",
      "outputs": [],
      "payable": false,
      "stateMutability": "nonpayable",
      "type": "function"
    },
    {
      "constant": true,
      "inputs": [],
      "name": "inRebaseWindow",
      "outputs": [
        {
          "internalType": "bool",
          "name": "",
          "type": "bool"
        }
      ],
      "payable": false,
      "stateMutability": "view",
      "type": "function"
    },
    {
      "constant": false,
      "inputs": [
        {
          "internalType": "address",
          "name": "destination",
          "type": "address"
        },
        {
          "internalType": "bytes",
          "name": "data",
          "type": "bytes"
        }
      ],
      "name": "addTransaction",
      "outputs": [],
      "payable": false,
      "stateMutability": "nonpayable",
      "type": "function"
    },
    {
      "constant": false,
      "inputs": [
        {
          "internalType": "uint256",
          "name": "index",
          "type": "uint256"
        }
      ],
      "name": "removeTransaction",
      "outputs": [],
      "payable": false,
      "stateMutability": "nonpayable",
      "type": "function"
    },
    {
      "constant": false,
      "inputs": [
        {
          "internalType": "uint256",
          "name": "index",
          "type": "uint256"
        },
        {
          "internalType": "bool",
          "name": "enabled",
          "type": "bool"
        }
      ],
      "name": "setTransactionEnabled",
      "outputs": [],
      "payable": false,
      "stateMutability": "nonpayable",
      "type": "function"
    },
    {
      "constant": false,
      "inputs": [
        {
          "internalType": "address",
          "name": "token",
          "type": "address"
        },
        {
          "internalType": "address",
          "name": "to",
          "type": "address"
        },
        {
          "internalType": "uint256",
          "name": "amount",
          "type": "uint256"
        }
      ],
      "name": "rescueTokens",
      "outputs": [
        {
          "internalType": "bool",
          "name": "",
          "type": "bool"
        }
      ],
      "payable": false,
      "stateMutability": "nonpayable",
      "type": "function"
    }
  ],
  "bytecode": "0x60806040523480156200001157600080fd5b506040516200519d3803806200519d8339810160408190526200003491620002be565b61a8c06007556170806009556000806200005888886001600160e01b03620001a216565b91509150876001600160a01b0316826001600160a01b031614156200008a576019805460ff1916600117905562000095565b6019805460ff191690555b620000ab8683836001600160e01b036200023d16565b601180546001600160a01b03199081166001600160a01b03938416179182905560128054600181810183556000929092527fbb8a6a4669ba250d26cd7a459eca9d215f8307e33aebe50379bc5a3617ec34440180549385169383169390931790925560108054821698841698909817909755600f8054881699831699909917909855600e8054871699821699909917909855505060168054841692909616919091179094556017939093555066c02cea37e26800601855670de0b6b3a7640000600455600a600381905567016345785d8a000060055566b1a2bc2ec50000600655610e109055805433921691909117905562000573565b600080826001600160a01b0316846001600160a01b03161415620001e35760405162461bcd60e51b8152600401620001da90620004ec565b60405180910390fd5b826001600160a01b0316846001600160a01b0316106200020557828462000208565b83835b90925090506001600160a01b038216620002365760405162461bcd60e51b8152600401620001da90620004fe565b9250929050565b6000838383604051602001620002559291906200047c565b604051602081830303815290604052805190602001206040516020016200027e929190620004a6565b60408051601f198184030181529190528051602090910120949350505050565b8051620002ab816200054e565b92915050565b8051620002ab8162000568565b60008060008060008060c08789031215620002d857600080fd5b6000620002e689896200029e565b9650506020620002f989828a016200029e565b95505060406200030c89828a016200029e565b94505060606200031f89828a016200029e565b93505060806200033289828a016200029e565b92505060a06200034589828a01620002b1565b9150509295509295509295565b6200036762000361826200051e565b6200053a565b82525050565b620003676200037c826200052b565b6200052b565b60006200039160258362000510565b7f556e697377617056324c6962726172793a204944454e544943414c5f41444452815264455353455360d81b602082015260400192915050565b6000620003da60018362000519565b7fff00000000000000000000000000000000000000000000000000000000000000815260010192915050565b60006200041560208362000519565b7fc1c39578ac88490fe2205a42473b4c3d7eca7a1df6c3ed697d5f61c064bf70b4815260200192915050565b600062000450601e8362000510565b7f556e697377617056324c6962726172793a205a45524f5f414444524553530000815260200192915050565b60006200048a828562000352565b6014820191506200049c828462000352565b5060140192915050565b6000620004b382620003cb565b9150620004c1828562000352565b601482019150620004d382846200036d565b602082019150620004e48262000406565b949350505050565b60208082528101620002ab8162000382565b60208082528101620002ab8162000441565b90815260200190565b919050565b6000620002ab826200052e565b90565b6001600160a01b031690565b6000620002ab826000620002ab8260601b90565b62000559816200051e565b81146200056557600080fd5b50565b62000559816200052b565b614c1a80620005836000396000f3fe608060405234801561001057600080fd5b50600436106103775760003560e01c80636bf9ace7116101d3578063c4c6eaad11610104578063d94ad837116100a2578063e4751f7c1161007c578063e4751f7c1461065e578063ec342ad014610666578063f12b83b91461066e578063f4325d671461067657610377565b8063d94ad83714610646578063dcf93f321461064e578063e3577e7b1461065657610377565b8063cd877826116100de578063cd87782614610610578063cdabdaac14610618578063cea9d26f1461062b578063cf1b927e1461063e57610377565b8063c4c6eaad146105eb578063c5700a02146105f3578063cc8fd3931461060857610377565b8063900cf0cf116101715780639ace38c21161014b5780639ace38c214610599578063af14052c146105bb578063b532be18146105c3578063b60e1e3e146105d857610377565b8063900cf0cf146105765780639466120f1461057e5780639671ecff1461058657610377565b806373f03dff116101ad57806373f03dff1461054b578063832a30351461055e5780638b9ada95146105665780638d76a5bb1461056e57610377565b80636bf9ace71461051d5780636e9dde99146105305780637052b9021461054357610377565b80632f43c1bc116102ad5780634f2b96291161024b57806357466c8b1161022557806357466c8b146104f257806363f6d4c8146104fa5780636406ca5f1461050257806368dd354c1461050a57610377565b80634f2b9629146104b9578063527a52c8146104cc57806353a15edc146104df57610377565b806346c3bd1f1161028757806346c3bd1f1461048e5780634bda2e20146104a15780634dc95de1146104a95780634e66f8ae146104b157610377565b80632f43c1bc146104765780633a68eaf61461047e5780633a93069b1461048657610377565b806314eb3f241161031a5780631cab801c116102f45780631cab801c146104405780631e0cd44e1461044857806320ce83891461045b578063252408101461046e57610377565b806314eb3f241461040757806316250fd41461041a5780631b58ac4a1461042d57610377565b806310d1e85c1161035657806310d1e85c146103c4578063111d0498146103d7578063126e19be146103ec57806312d43a51146103ff57610377565b80623f4ecb1461037c578063021018991461039157806307daae0d146103af575b600080fd5b61038f61038a366004613eba565b61067e565b005b6103996106a7565b6040516103a6919061497b565b60405180910390f35b6103b76106ad565b6040516103a69190614707565b61038f6103d2366004613d59565b6106c9565b6103df610dbf565b6040516103a69190614784565b61038f6103fa366004613d03565b610dd0565b6103b7610f12565b6103b7610415366004613eba565b610f2e565b61038f610428366004613f26565b610f62565b61038f61043b366004613eba565b610fbb565b6103996110eb565b6103b7610456366004613eba565b6110f1565b61038f610469366004613eba565b6110fe565b6103b7611134565b610399611150565b6103b7611156565b610399611172565b61038f61049c366004613eba565b611178565b61038f611355565b6103df611438565b61038f611441565b61038f6104c7366004613eba565b6114eb565b61038f6104da366004613c98565b611616565b61038f6104ed366004613eba565b6116be565b61038f61172b565b610399611816565b61039961181c565b61038f610518366004613c98565b611823565b61038f61052b366004613eba565b61188e565b61038f61053e366004613ef6565b611900565b6103996119ae565b61038f610559366004613c98565b6119b4565b610399611a50565b610399611b38565b610399611b3e565b610399611b4a565b610399611b50565b61038f610594366004613dd2565b611b56565b6105ac6105a7366004613eba565b611c88565b6040516103a693929190614792565b61038f611d78565b6105cb61216a565b6040516103a69190614773565b61038f6105e6366004613eba565b6121dc565b6103b761224e565b6105fb61226a565b6040516103a69190614a2f565b610399612276565b61039961227c565b61038f610626366004613eba565b612282565b6103df610639366004613cb6565b6122b8565b6103996122f1565b6103996122f7565b6103df6122fd565b6103b7612306565b610399612322565b61039961232e565b6105cb61233a565b6103b76123aa565b60015473ffffffffffffffffffffffffffffffffffffffff1633146106a257600080fd5b601755565b60075481565b600e5473ffffffffffffffffffffffffffffffffffffffff1681565b60115473ffffffffffffffffffffffffffffffffffffffff163314610723576040517f08c379a000000000000000000000000000000000000000000000000000000000815260040161071a906148fd565b60405180910390fd5b73ffffffffffffffffffffffffffffffffffffffff84163014610772576040517f08c379a000000000000000000000000000000000000000000000000000000000815260040161071a9061495d565b61077a6138b9565b8180602001905161078e9190810190613e59565b600e54602082015191925073ffffffffffffffffffffffffffffffffffffffff1690156109295760105460115460208401516040517f23b872dd00000000000000000000000000000000000000000000000000000000815273ffffffffffffffffffffffffffffffffffffffff808616946323b872dd946108189491831693921691600401614730565b602060405180830381600087803b15801561083257600080fd5b505af1158015610846573d6000803e3d6000fd5b505050506040513d601f19601f8201168201806040525061086a9190810190613e3b565b50815160208301511015610924576011546020830151835173ffffffffffffffffffffffffffffffffffffffff808516936340c10f19939116916108b39163ffffffff6123c616565b6040518363ffffffff1660e01b81526004016108d0929190614758565b602060405180830381600087803b1580156108ea57600080fd5b505af11580156108fe573d6000803e3d6000fd5b505050506040513d601f19601f820116820180604052506109229190810190613e3b565b505b6109d8565b60115482516040517f40c10f1900000000000000000000000000000000000000000000000000000000815273ffffffffffffffffffffffffffffffffffffffff848116936340c10f1993610984939290911691600401614758565b602060405180830381600087803b15801561099e57600080fd5b505af11580156109b2573d6000803e3d6000fd5b505050506040513d601f19601f820116820180604052506109d69190810190613e3b565b505b604082015115610a945760105460408381015190517f40c10f1900000000000000000000000000000000000000000000000000000000815273ffffffffffffffffffffffffffffffffffffffff848116936340c10f1993610a40939290911691600401614758565b602060405180830381600087803b158015610a5a57600080fd5b505af1158015610a6e573d6000803e3d6000fd5b505050506040513d601f19601f82011682018060405250610a929190810190613e3b565b505b60195460ff1615610c365760165473ffffffffffffffffffffffffffffffffffffffff1615801590610ac857506000601754115b15610bbd576000610afc670de0b6b3a7640000610af06017548861241190919063ffffffff16565b9063ffffffff61246516565b600f54601054919250610b389173ffffffffffffffffffffffffffffffffffffffff9182169116610b33888563ffffffff6123c616565b6124a7565b600f54601654610b629173ffffffffffffffffffffffffffffffffffffffff9081169116836124a7565b7fb335015c214ae37ed112cc5eb042235c0ea40a7617987e1bd847839143872350610b93868363ffffffff6123c616565b845160208601516040808801519051610baf94939291906149fa565b60405180910390a150610c31565b600f54601054610be79173ffffffffffffffffffffffffffffffffffffffff9081169116866124a7565b7fb335015c214ae37ed112cc5eb042235c0ea40a7617987e1bd84783914387235084836000015184602001518560400151604051610c2894939291906149fa565b60405180910390a15b610db7565b60165473ffffffffffffffffffffffffffffffffffffffff1615801590610c5f57506000601754115b15610d43576000610c87670de0b6b3a7640000610af06017548961241190919063ffffffff16565b600f54601054919250610cbe9173ffffffffffffffffffffffffffffffffffffffff9182169116610b33898563ffffffff6123c616565b600f54601654610ce89173ffffffffffffffffffffffffffffffffffffffff9081169116836124a7565b7fb335015c214ae37ed112cc5eb042235c0ea40a7617987e1bd847839143872350610d19878363ffffffff6123c616565b845160208601516040808801519051610d3594939291906149fa565b60405180910390a150610db7565b600f54601054610d6d9173ffffffffffffffffffffffffffffffffffffffff9081169116876124a7565b7fb335015c214ae37ed112cc5eb042235c0ea40a7617987e1bd84783914387235085836000015184602001518560400151604051610dae94939291906149fa565b60405180910390a15b505050505050565b6000610dc9612564565b5060015b90565b60015473ffffffffffffffffffffffffffffffffffffffff163314610df457600080fd5b600060405180606001604052806001151581526020018573ffffffffffffffffffffffffffffffffffffffff16815260200184848080601f016020809104026020016040519081016040528093929190818152602001838380828437600092018290525093909452505083546001818101808755958352602092839020855160029093020180548487015173ffffffffffffffffffffffffffffffffffffffff16610100027fffffffffffffffffffffff0000000000000000000000000000000000000000ff9415157fffffffffffffffffffffffffffffffffffffffffffffffffffffffffffffff00909216919091179390931692909217825560408501518051929450610f0993918501929101906138da565b50505050505050565b60015473ffffffffffffffffffffffffffffffffffffffff1681565b60128181548110610f3b57fe5b60009182526020909120015473ffffffffffffffffffffffffffffffffffffffff16905081565b60015473ffffffffffffffffffffffffffffffffffffffff163314610f8657600080fd5b60008311610f9357600080fd5b828210610f9f57600080fd5b8281830110610fad57600080fd5b600792909255600955600a55565b60015473ffffffffffffffffffffffffffffffffffffffff163314610fdf57600080fd5b6013548110610fed576110e8565b805b6013547fffffffffffffffffffffffffffffffffffffffffffffffffffffffffffffffff018110156110b4576013816001018154811061102b57fe5b6000918252602090912001546013805473ffffffffffffffffffffffffffffffffffffffff909216918390811061105e57fe5b600091825260209091200180547fffffffffffffffffffffffff00000000000000000000000000000000000000001673ffffffffffffffffffffffffffffffffffffffff92909216919091179055600101610fef565b5060138054906110e6907fffffffffffffffffffffffffffffffffffffffffffffffffffffffffffffffff8301613958565b505b50565b60055481565b60138181548110610f3b57fe5b60015473ffffffffffffffffffffffffffffffffffffffff16331461112257600080fd5b6000811161112f57600080fd5b600355565b60025473ffffffffffffffffffffffffffffffffffffffff1681565b60155481565b60105473ffffffffffffffffffffffffffffffffffffffff1681565b60085481565b60015473ffffffffffffffffffffffffffffffffffffffff16331461119c57600080fd5b60005481106111d7576040517f08c379a000000000000000000000000000000000000000000000000000000000815260040161071a9061492d565b6000547fffffffffffffffffffffffffffffffffffffffffffffffffffffffffffffffff0181101561132457600080547fffffffffffffffffffffffffffffffffffffffffffffffffffffffffffffffff810190811061123357fe5b90600052602060002090600202016000828154811061124e57fe5b600091825260209091208254600292830290910180547fffffffffffffffffffffffffffffffffffffffffffffffffffffffffffffff001660ff90921615159190911780825583547fffffffffffffffffffffff0000000000000000000000000000000000000000ff9091166101009182900473ffffffffffffffffffffffffffffffffffffffff168202178255600180850180549394611320948387019492938116159092027fffffffffffffffffffffffffffffffffffffffffffffffffffffffffffffffff019091160461397c565b5050505b60008054906110e6907fffffffffffffffffffffffffffffffffffffffffffffffffffffffffffffffff83016139f1565b60025473ffffffffffffffffffffffffffffffffffffffff1633146113a6576040517f08c379a000000000000000000000000000000000000000000000000000000000815260040161071a9061489d565b60018054600280547fffffffffffffffffffffffff000000000000000000000000000000000000000080841673ffffffffffffffffffffffffffffffffffffffff83811691909117958690559116909155604051918116927f1f14cfc03e486d23acee577b07bc0b3b23f4888c91fcdba5e0fef5a2549d55239261142d9285921690614715565b60405180910390a150565b600c5460ff1681565b6000600d541161147d576040517f08c379a000000000000000000000000000000000000000000000000000000000815260040161071a9061481d565b62015180600d54014210156114be576040517f08c379a000000000000000000000000000000000000000000000000000000000815260040161071a9061485d565b600c80547fffffffffffffffffffffffffffffffffffffffffffffffffffffffffffffff00166001179055565b60015473ffffffffffffffffffffffffffffffffffffffff16331461150f57600080fd5b601254811061151d576110e8565b805b6012547fffffffffffffffffffffffffffffffffffffffffffffffffffffffffffffffff018110156115e4576012816001018154811061155b57fe5b6000918252602090912001546012805473ffffffffffffffffffffffffffffffffffffffff909216918390811061158e57fe5b600091825260209091200180547fffffffffffffffffffffffff00000000000000000000000000000000000000001673ffffffffffffffffffffffffffffffffffffffff9290921691909117905560010161151f565b5060128054906110e6907fffffffffffffffffffffffffffffffffffffffffffffffffffffffffffffffff8301613958565b60015473ffffffffffffffffffffffffffffffffffffffff16331461163a57600080fd5b6010805473ffffffffffffffffffffffffffffffffffffffff8381167fffffffffffffffffffffffff00000000000000000000000000000000000000008316179092556040519116907fce840d2205f08f33375689943da5da9fdfde146fcbb5553b17910a60c8284a20906116b29083908590614715565b60405180910390a15050565b60015473ffffffffffffffffffffffffffffffffffffffff1633146116e257600080fd5b6000600654116116f157600080fd5b60068054908290556040517f2a5cda4d16fba415b52d90b59ee30d4cb16494da9fd1ee51c4d5bac4a1f75bbe906116b290839085906149c4565b600d5415611765576040517f08c379a000000000000000000000000000000000000000000000000000000000815260040161071a9061491d565b60115460195460009182916117939173ffffffffffffffffffffffffffffffffffffffff169060ff16612651565b9150915060008163ffffffff16116117d7576040517f08c379a000000000000000000000000000000000000000000000000000000000815260040161071a9061484d565b6014805463ffffffff9092167fffffffffffffffffffffffffffffffffffffffffffffffffffffffff0000000090921682179055601591909155600d55565b60035481565b6201518081565b60015473ffffffffffffffffffffffffffffffffffffffff16331461184757600080fd5b601680547fffffffffffffffffffffffff00000000000000000000000000000000000000001673ffffffffffffffffffffffffffffffffffffffff92909216919091179055565b60015473ffffffffffffffffffffffffffffffffffffffff1633146118b257600080fd5b6703782dace9d9000081106118c657600080fd5b60058054908290556040517f59b3ffce759ec92c629beee27554d8fbc2ca1a05020fa0cf500c890c172094be906116b290839085906149c4565b60015473ffffffffffffffffffffffffffffffffffffffff16331461192457600080fd5b600054821061195f576040517f08c379a000000000000000000000000000000000000000000000000000000000815260040161071a9061483d565b806000838154811061196d57fe5b6000918252602090912060029091020180547fffffffffffffffffffffffffffffffffffffffffffffffffffffffffffffff00169115159190911790555050565b60095481565b60015473ffffffffffffffffffffffffffffffffffffffff1633146119d857600080fd5b6002805473ffffffffffffffffffffffffffffffffffffffff8381167fffffffffffffffffffffffff00000000000000000000000000000000000000008316179092556040519116907f6163d5b9efd962645dd649e6e48a61bcb0f9df00997a2398b80d135a9ab0c61e906116b29083908590614715565b60115460195460009182918291611a829173ffffffffffffffffffffffffffffffffffffffff9091169060ff16612651565b60145460155492945090925063ffffffff908116830391600091831690850381611aa857fe5b047bffffffffffffffffffffffffffffffffffffffffffffffffffffffff1690507fffffffffffffffffffffffffffffffffffffffffffffffffffffffffffffffff77ffffffffffffffffffffffffffffffffffffffffffffffff16811115611b235760701c670de0b6b3a7640000029350610dcd92505050565b670de0b6b3a76400000260701c935050505090565b60175481565b6701a35734e8f4380081565b600b5481565b600a5481565b60015473ffffffffffffffffffffffffffffffffffffffff163314611b7a57600080fd5b60005b8251811015611bfe576012838281518110611b9457fe5b60209081029190910181015182546001808201855560009485529290932090920180547fffffffffffffffffffffffff00000000000000000000000000000000000000001673ffffffffffffffffffffffffffffffffffffffff9093169290921790915501611b7d565b5060005b8151811015611c83576013828281518110611c1957fe5b60209081029190910181015182546001808201855560009485529290932090920180547fffffffffffffffffffffffff00000000000000000000000000000000000000001673ffffffffffffffffffffffffffffffffffffffff9093169290921790915501611c02565b505050565b60008181548110611c9557fe5b6000918252602091829020600291820201805460018083018054604080516101009483161585027fffffffffffffffffffffffffffffffffffffffffffffffffffffffffffffffff0190921696909604601f810188900488028201880190965285815260ff841697509190920473ffffffffffffffffffffffffffffffffffffffff169492939092830182828015611d6e5780601f10611d4357610100808354040283529160200191611d6e565b820191906000526020600020905b815481529060010190602001808311611d5157829003601f168201915b5050505050905083565b33321480611d9d575060015473ffffffffffffffffffffffffffffffffffffffff1633145b611da657600080fd5b611dae612564565b42611dc660075460085461289890919063ffffffff16565b10611dd057600080fd5b611e07600954611dfb611dee600754426128d790919063ffffffff16565b429063ffffffff6123c616565b9063ffffffff61289816565b600855600b54611e1e90600163ffffffff61289816565b600b556000611e2b612919565b9050600080611e39836129ff565b60035491935091508290611e5490829063ffffffff61246516565b600e5490915073ffffffffffffffffffffffffffffffffffffffff168215611fd4578073ffffffffffffffffffffffffffffffffffffffff166311d3e6c46040518163ffffffff1660e01b815260040160206040518083038186803b158015611ebc57600080fd5b505afa158015611ed0573d6000803e3d6000fd5b505050506040513d601f19601f82011682018060405250611ef49190810190613ed8565b611f9d670de0b6b3a7640000610af0611f13828763ffffffff61289816565b8573ffffffffffffffffffffffffffffffffffffffff166345d1292c6040518163ffffffff1660e01b815260040160206040518083038186803b158015611f5957600080fd5b505afa158015611f6d573d6000803e3d6000fd5b505050506040513d601f19601f82011682018060405250611f919190810190613ed8565b9063ffffffff61241116565b10611fd4576040517f08c379a000000000000000000000000000000000000000000000000000000000815260040161071a9061487d565b60008173ffffffffffffffffffffffffffffffffffffffff166318160ddd6040518163ffffffff1660e01b815260040160206040518083038186803b15801561201c57600080fd5b505afa158015612030573d6000803e3d6000fd5b505050506040513d601f19601f820116820180604052506120549190810190613ed8565b9050600084156120b5576000612081670de0b6b3a7640000610af06005548861241190919063ffffffff16565b9050612093858263ffffffff6123c616565b94506120b1670de0b6b3a7640000610af0858463ffffffff61241116565b9150505b600b546040517f7af548c100000000000000000000000000000000000000000000000000000000815273ffffffffffffffffffffffffffffffffffffffff851691637af548c19161210d919088908a906004016149d2565b602060405180830381600087803b15801561212757600080fd5b505af115801561213b573d6000803e3d6000fd5b505050506040513d601f19601f8201168201806040525061215f9190810190613ed8565b50610f098187612a82565b60608060128054806020026020016040519081016040528092919081815260200182805480156121d057602002820191906000526020600020905b815473ffffffffffffffffffffffffffffffffffffffff1681526001909101906020018083116121a5575b50939550505050505090565b60015473ffffffffffffffffffffffffffffffffffffffff16331461220057600080fd5b6701a35734e8f43800811061221457600080fd5b60188054908290556040517fe21b25c4eda0340cd924f3247795d0acde6c304b68ae77657bb2d4e840198bf8906116b290839085906149c4565b60115473ffffffffffffffffffffffffffffffffffffffff1681565b60145463ffffffff1681565b60045481565b600d5481565b60015473ffffffffffffffffffffffffffffffffffffffff1633146122a657600080fd5b600081116122b357600080fd5b600455565b60015460009073ffffffffffffffffffffffffffffffffffffffff1633146122df57600080fd5b6122ea8484846124a7565b9392505050565b60185481565b60065481565b60195460ff1681565b60165473ffffffffffffffffffffffffffffffffffffffff1681565b6703782dace9d9000081565b670de0b6b3a764000081565b60608060138054806020026020016040519081016040528092919081815260200182805480156121d05760200282019190600052602060002090815473ffffffffffffffffffffffffffffffffffffffff1681526001909101906020018083116121a55750939550505050505090565b600f5473ffffffffffffffffffffffffffffffffffffffff1681565b600061240883836040518060400160405280601e81526020017f536166654d6174683a207375627472616374696f6e206f766572666c6f770000815250612da9565b90505b92915050565b6000826124205750600061240b565b8282028284828161242d57fe5b0414612408576040517f08c379a000000000000000000000000000000000000000000000000000000000815260040161071a9061488d565b600061240883836040518060400160405280601a81526020017f536166654d6174683a206469766973696f6e206279207a65726f000000000000815250612def565b604051611c839084907fa9059cbb00000000000000000000000000000000000000000000000000000000906124e29086908690602401614758565b604080517fffffffffffffffffffffffffffffffffffffffffffffffffffffffffffffffe08184030181529190526020810180517bffffffffffffffffffffffffffffffffffffffffffffffffffffffff167fffffffff0000000000000000000000000000000000000000000000000000000090931692909217909152612e40565b600c5460ff166125a0576040517f08c379a000000000000000000000000000000000000000000000000000000000815260040161071a906148ad565b6009546007546125b790429063ffffffff6128d716565b10156125ef576040517f08c379a000000000000000000000000000000000000000000000000000000000815260040161071a906148cd565b600a546009546126049163ffffffff61289816565b60075461261890429063ffffffff6128d716565b1061264f576040517f08c379a000000000000000000000000000000000000000000000000000000000815260040161071a906148dd565b565b60008061265c612ef6565b905060008060008673ffffffffffffffffffffffffffffffffffffffff16630902f1ac6040518163ffffffff1660e01b815260040160606040518083038186803b1580156126a957600080fd5b505afa1580156126bd573d6000803e3d6000fd5b505050506040513d601f19601f820116820180604052506126e19190810190613e77565b92509250925085156127c0578673ffffffffffffffffffffffffffffffffffffffff16635909c0d56040518163ffffffff1660e01b815260040160206040518083038186803b15801561273357600080fd5b505afa158015612747573d6000803e3d6000fd5b505050506040513d601f19601f8201168201806040525061276b9190810190613ed8565b94508363ffffffff168163ffffffff16146127bb5780840363ffffffff81166127948486612f00565b517bffffffffffffffffffffffffffffffffffffffffffffffffffffffff16029590950194505b61288e565b8673ffffffffffffffffffffffffffffffffffffffff16635a3d54936040518163ffffffff1660e01b815260040160206040518083038186803b15801561280657600080fd5b505afa15801561281a573d6000803e3d6000fd5b505050506040513d601f19601f8201168201806040525061283e9190810190613ed8565b94508363ffffffff168163ffffffff161461288e5780840363ffffffff81166128678585612f00565b517bffffffffffffffffffffffffffffffffffffffffffffffffffffffff16029590950194505b5050509250929050565b600082820183811015612408576040517f08c379a000000000000000000000000000000000000000000000000000000000815260040161071a9061482d565b600061240883836040518060400160405280601881526020017f536166654d6174683a206d6f64756c6f206279207a65726f0000000000000000815250612fc3565b6011546019546000918291829161294b9173ffffffffffffffffffffffffffffffffffffffff9091169060ff16612651565b60145460155492945090925063ffffffff90811683039160009183169085038161297157fe5b6015869055601480547fffffffffffffffffffffffffffffffffffffffffffffffffffffffff000000001663ffffffff8716179055047bffffffffffffffffffffffffffffffffffffffffffffffffffffffff16905077ffffffffffffffffffffffffffffffffffffffffffffffff811115611b235760701c670de0b6b3a7640000029350610dcd92505050565b600080612a0b83613011565b15612a1b57506000905080612a7d565b600454831115612a5357600454612a4890610af0670de0b6b3a7640000611f91878463ffffffff6123c616565b600191509150612a7d565b600454612a7690610af0670de0b6b3a7640000611f91838863ffffffff6123c616565b6000915091505b915091565b60005b601254811015612b2e5760128181548110612a9c57fe5b6000918252602082200154604080517ffff6cae9000000000000000000000000000000000000000000000000000000008152905173ffffffffffffffffffffffffffffffffffffffff9092169263fff6cae99260048084019382900301818387803b158015612b0a57600080fd5b505af1158015612b1e573d6000803e3d6000fd5b505060019092019150612a859050565b5060005b601354811015612bea5760138181548110612b4957fe5b600091825260209091200154600e546040517f8c28cbe800000000000000000000000000000000000000000000000000000000815273ffffffffffffffffffffffffffffffffffffffff92831692638c28cbe892612bac92911690600401614707565b600060405180830381600087803b158015612bc657600080fd5b505af1158015612bda573d6000803e3d6000fd5b505060019092019150612b329050565b508115612bfb57612bfb828261308d565b60005b600054811015611c83576000808281548110612c1657fe5b60009182526020909120600290910201805490915060ff1615612da05780546001808301805460408051602060026101009685161587027fffffffffffffffffffffffffffffffffffffffffffffffffffffffffffffffff0190941693909304601f8101849004840282018401909252818152600095612d0995900473ffffffffffffffffffffffffffffffffffffffff16939092909190830182828015612cff5780601f10612cd457610100808354040283529160200191612cff565b820191906000526020600020905b815481529060010190602001808311612ce257829003601f168201915b50505050506135ed565b905080612d9e57815460405161010090910473ffffffffffffffffffffffffffffffffffffffff16907f8091ecaaa54ebb82e02d36c2c336528e0fcb9b3430fc1291ac88295032b9c26390612d649086906001870190614989565b60405180910390a26040517f08c379a000000000000000000000000000000000000000000000000000000000815260040161071a9061493d565b505b50600101612bfe565b60008184841115612de7576040517f08c379a000000000000000000000000000000000000000000000000000000000815260040161071a919061480c565b505050900390565b60008183612e2a576040517f08c379a000000000000000000000000000000000000000000000000000000000815260040161071a919061480c565b506000838581612e3657fe5b0495945050505050565b6060612ea2826040518060400160405280602081526020017f5361666545524332303a206c6f772d6c6576656c2063616c6c206661696c65648152508573ffffffffffffffffffffffffffffffffffffffff166136109092919063ffffffff16565b805190915015611c835780806020019051612ec09190810190613e3b565b611c83576040517f08c379a000000000000000000000000000000000000000000000000000000000815260040161071a906148ed565b63ffffffff421690565b612f08613a1d565b6000826dffffffffffffffffffffffffffff1611612f52576040517f08c379a000000000000000000000000000000000000000000000000000000000815260040161071a9061494d565b6040805160208101909152806dffffffffffffffffffffffffffff84167bffffffffffffffffffffffffffff0000000000000000000000000000607087901b1681612f9957fe5b047bffffffffffffffffffffffffffffffffffffffffffffffffffffffff16815250905092915050565b60008183612ffe576040517f08c379a000000000000000000000000000000000000000000000000000000000815260040161071a919061480c565b5082848161300857fe5b06949350505050565b600080613037670de0b6b3a7640000610af060065460045461241190919063ffffffff16565b9050600454831015801561305e57508061305c600454856123c690919063ffffffff16565b105b806122ea5750600454831080156122ea57506004548190613085908563ffffffff6123c616565b109392505050565b601154600e54604080517f0902f1ac000000000000000000000000000000000000000000000000000000008152905173ffffffffffffffffffffffffffffffffffffffff938416939092169160009182918591630902f1ac916004808301926060929190829003018186803b15801561310557600080fd5b505afa158015613119573d6000803e3d6000fd5b505050506040513d601f19601f8201168201806040525061313d9190810190613e77565b506010546040517f70a082310000000000000000000000000000000000000000000000000000000081526dffffffffffffffffffffffffffff938416955091909216925060009173ffffffffffffffffffffffffffffffffffffffff808716926370a08231926131b1921690600401614707565b60206040518083038186803b1580156131c957600080fd5b505afa1580156131dd573d6000803e3d6000fd5b505050506040513d601f19601f820116820180604052506132019190810190613ed8565b90506000613210848489613627565b905061321a6138b9565b50604080516060810182528281526020810184905260009181019190915260195460ff161561343157613253898463ffffffff61289816565b821115613313576000613269848b0187876136d4565b8a85018352602080840186905260405191925073ffffffffffffffffffffffffffffffffffffffff8a169163022c0d9f91600091859130916132ad9189910161496d565b6040516020818303038152906040526040518563ffffffff1660e01b81526004016132db94939291906147c8565b600060405180830381600087803b1580156132f557600080fd5b505af1158015613309573d6000803e3d6000fd5b505050505061342c565b828211156133765760006133288387876136d4565b905061333c8a85850363ffffffff6123c616565b8260400181815250508773ffffffffffffffffffffffffffffffffffffffff1663022c0d9f60008330866040516020016132ad919061496d565b60006133838387876136d4565b905082826020018181525050898260400181815250508773ffffffffffffffffffffffffffffffffffffffff1663022c0d9f60008330866040516020016133ca919061496d565b6040516020818303038152906040526040518563ffffffff1660e01b81526004016133f894939291906147c8565b600060405180830381600087803b15801561341257600080fd5b505af1158015613426573d6000803e3d6000fd5b50505050505b6135e2565b613441898463ffffffff61289816565b8211156134c9576000613457848b0186886136d4565b8a85018352602080840186905260405191925073ffffffffffffffffffffffffffffffffffffffff8a169163022c0d9f918491600091309161349b9189910161496d565b6040516020818303038152906040526040518563ffffffff1660e01b81526004016133f894939291906149a9565b8282111561352c5760006134de8386886136d4565b90506134f28a85850363ffffffff6123c616565b8260400181815250508773ffffffffffffffffffffffffffffffffffffffff1663022c0d9f826000308660405160200161349b919061496d565b60006135398386886136d4565b905082826020018181525050898260400181815250508773ffffffffffffffffffffffffffffffffffffffff1663022c0d9f8260003086604051602001613580919061496d565b6040516020818303038152906040526040518563ffffffff1660e01b81526004016135ae94939291906149a9565b600060405180830381600087803b1580156135c857600080fd5b505af11580156135dc573d6000803e3d6000fd5b50505050505b505050505050505050565b6000806040516020840160008286518360008a6187965a03f19695505050505050565b606061361f84846000856137ae565b949350505050565b60195460009060ff16156136885767016345785d8a0000821061366c57613665670de0b6b3a7640000610af06018548761241190919063ffffffff16565b90506122ea565b6136656729a2241af62c0000610af0868563ffffffff61241116565b67016345785d8a000082106136b857613665670de0b6b3a7640000610af06018548661241190919063ffffffff16565b6136656729a2241af62c0000610af0858563ffffffff61241116565b600080841161370f576040517f08c379a000000000000000000000000000000000000000000000000000000000815260040161071a9061490d565b60008311801561371f5750600082115b613755576040517f08c379a000000000000000000000000000000000000000000000000000000000815260040161071a9061486d565b6000613769856103e563ffffffff61241116565b9050600061377d828563ffffffff61241116565b9050600061379783611dfb886103e863ffffffff61241116565b90508082816137a257fe5b04979650505050505050565b60606137b9856138b3565b6137ef576040517f08c379a000000000000000000000000000000000000000000000000000000000815260040161071a906148bd565b600060608673ffffffffffffffffffffffffffffffffffffffff16858760405161381991906146fb565b60006040518083038185875af1925050503d8060008114613856576040519150601f19603f3d011682016040523d82523d6000602084013e61385b565b606091505b5091509150811561386f57915061361f9050565b80511561387f5780518082602001fd5b836040517f08c379a000000000000000000000000000000000000000000000000000000000815260040161071a919061480c565b3b151590565b60405180606001604052806000815260200160008152602001600081525090565b828054600181600116156101000203166002900490600052602060002090601f016020900481019282601f1061391b57805160ff1916838001178555613948565b82800160010185558215613948579182015b8281111561394857825182559160200191906001019061392d565b50613954929150613a2f565b5090565b815481835581811115611c8357600083815260209020611c83918101908301613a2f565b828054600181600116156101000203166002900490600052602060002090601f016020900481019282601f106139b55780548555613948565b8280016001018555821561394857600052602060002091601f016020900482015b828111156139485782548255916001019190600101906139d6565b815481835581811115611c8357600202816002028360005260206000209182019101611c839190613a49565b60408051602081019091526000815290565b610dcd91905b808211156139545760008155600101613a35565b610dcd91905b808211156139545780547fffffffffffffffffffffff0000000000000000000000000000000000000000001681556000613a8c6001830182613a95565b50600201613a4f565b50805460018160011615610100020316600290046000825580601f10613abb57506110e8565b601f0160209004906000526020600020908101906110e89190613a2f565b803561240b81614b9f565b600082601f830112613af557600080fd5b8135613b08613b0382614a64565b614a3d565b91508181835260208401935060208101905083856020840282011115613b2d57600080fd5b60005b83811015613b595781613b438882613ad9565b8452506020928301929190910190600101613b30565b5050505092915050565b803561240b81614bb3565b805161240b81614bb3565b60008083601f840112613b8b57600080fd5b50813567ffffffffffffffff811115613ba357600080fd5b602083019150836001820283011115613bbb57600080fd5b9250929050565b600082601f830112613bd357600080fd5b8135613be1613b0382614a85565b91508082526020830160208301858383011115613bfd57600080fd5b613c08838284614b3f565b50505092915050565b600060608284031215613c2357600080fd5b613c2d6060614a3d565b90506000613c3b8484613c82565b8252506020613c4c84848301613c82565b6020830152506040613c6084828501613c82565b60408301525092915050565b805161240b81614bbc565b803561240b81614bc5565b805161240b81614bc5565b805161240b81614bce565b600060208284031215613caa57600080fd5b600061361f8484613ad9565b600080600060608486031215613ccb57600080fd5b6000613cd78686613ad9565b9350506020613ce886828701613ad9565b9250506040613cf986828701613c77565b9150509250925092565b600080600060408486031215613d1857600080fd5b6000613d248686613ad9565b935050602084013567ffffffffffffffff811115613d4157600080fd5b613d4d86828701613b79565b92509250509250925092565b60008060008060808587031215613d6f57600080fd5b6000613d7b8787613ad9565b9450506020613d8c87828801613c77565b9350506040613d9d87828801613c77565b925050606085013567ffffffffffffffff811115613dba57600080fd5b613dc687828801613bc2565b91505092959194509250565b60008060408385031215613de557600080fd5b823567ffffffffffffffff811115613dfc57600080fd5b613e0885828601613ae4565b925050602083013567ffffffffffffffff811115613e2557600080fd5b613e3185828601613ae4565b9150509250929050565b600060208284031215613e4d57600080fd5b600061361f8484613b6e565b600060608284031215613e6b57600080fd5b600061361f8484613c11565b600080600060608486031215613e8c57600080fd5b6000613e988686613c6c565b9350506020613ea986828701613c6c565b9250506040613cf986828701613c8d565b600060208284031215613ecc57600080fd5b600061361f8484613c77565b600060208284031215613eea57600080fd5b600061361f8484613c82565b60008060408385031215613f0957600080fd5b6000613f158585613c77565b9250506020613e3185828601613b63565b600080600060608486031215613f3b57600080fd5b6000613f478686613c77565b9350506020613ce886828701613c77565b6000613f648383613f6c565b505060200190565b613f7581614aef565b82525050565b6000613f8682614add565b613f908185614ae1565b9350613f9b83614acb565b8060005b83811015613fc9578151613fb38882613f58565b9750613fbe83614acb565b925050600101613f9f565b509495945050505050565b613f7581614afa565b6000613fe882614add565b613ff28185614ae1565b9350614002818560208601614b4b565b61400b81614b77565b9093019392505050565b600061402082614add565b61402a8185614aea565b935061403a818560208601614b4b565b9290920192915050565b60008154600181166000811461406157600181146140a5576140e4565b607f60028304166140728187614ae1565b7fffffffffffffffffffffffffffffffffffffffffffffffffffffffffffffff00841681529550506020850192506140e4565b600282046140b38187614ae1565b95506140be85614ad1565b60005b828110156140dd578154888201526001909101906020016140c1565b8701945050505b505092915050565b613f7581614b34565b6000614102602783614ae1565b7f74776170207761736e7420696e74697469617465642c2063616c6c20696e697481527f5f74776170282900000000000000000000000000000000000000000000000000602082015260400192915050565b6000614161601b83614ae1565b7f536166654d6174683a206164646974696f6e206f766572666c6f770000000000815260200192915050565b600061419a602883614ae1565b7f696e646578206d75737420626520696e2072616e6765206f662073746f72656481527f207478206c697374000000000000000000000000000000000000000000000000602082015260400192915050565b60006141f9600983614ae1565b7f6e6f207472616465730000000000000000000000000000000000000000000000815260200192915050565b6000614232600a83614ae1565b7f21656e645f64656c617900000000000000000000000000000000000000000000815260200192915050565b600061426b602883614ae1565b7f556e697377617056324c6962726172793a20494e53554646494349454e545f4c81527f4951554944495459000000000000000000000000000000000000000000000000602082015260400192915050565b60006142ca602283614ae1565b7f6e6577207363616c696e6720666163746f722077696c6c20626520746f6f206281527f6967000000000000000000000000000000000000000000000000000000000000602082015260400192915050565b6000614329602183614ae1565b7f536166654d6174683a206d756c7469706c69636174696f6e206f766572666c6f81527f7700000000000000000000000000000000000000000000000000000000000000602082015260400192915050565b6000614388600883614ae1565b7f2170656e64696e67000000000000000000000000000000000000000000000000815260200192915050565b60006143c1601383614ae1565b7f7265626173696e67206e6f742061637469766500000000000000000000000000815260200192915050565b60006143fa601d83614ae1565b7f416464726573733a2063616c6c20746f206e6f6e2d636f6e7472616374000000815260200192915050565b6000614433600983614ae1565b7f746f6f206561726c790000000000000000000000000000000000000000000000815260200192915050565b600061446c600883614ae1565b7f746f6f206c617465000000000000000000000000000000000000000000000000815260200192915050565b60006144a5602a83614ae1565b7f5361666545524332303a204552433230206f7065726174696f6e20646964206e81527f6f74207375636365656400000000000000000000000000000000000000000000602082015260400192915050565b6000614504600e83614ae1565b7f626164206d73672e73656e646572000000000000000000000000000000000000815260200192915050565b600061453d602b83614ae1565b7f556e697377617056324c6962726172793a20494e53554646494349454e545f4981527f4e5055545f414d4f554e54000000000000000000000000000000000000000000602082015260400192915050565b600061459c601183614ae1565b7f616c726561647920616374697661746564000000000000000000000000000000815260200192915050565b60006145d5601383614ae1565b7f696e646578206f7574206f6620626f756e647300000000000000000000000000815260200192915050565b600061460e601283614ae1565b7f5472616e73616374696f6e204661696c65640000000000000000000000000000815260200192915050565b6000614647601783614ae1565b7f4669786564506f696e743a204449565f42595f5a45524f000000000000000000815260200192915050565b6000614680600a83614ae1565b7f626164206f726967696e00000000000000000000000000000000000000000000815260200192915050565b805160608301906146bd84826146e9565b5060208201516146d060208501826146e9565b5060408201516146e360408501826146e9565b50505050565b613f7581610dcd565b613f7581614b2b565b60006122ea8284614015565b6020810161240b8284613f6c565b604081016147238285613f6c565b6122ea6020830184613f6c565b6060810161473e8286613f6c565b61474b6020830185613f6c565b61361f60408301846146e9565b604081016147668285613f6c565b6122ea60208301846146e9565b602080825281016124088184613f7b565b6020810161240b8284613fd4565b606081016147a08286613fd4565b6147ad6020830185613f6c565b81810360408301526147bf8184613fdd565b95945050505050565b608081016147d682876140ec565b6147e360208301866146e9565b6147f06040830185613f6c565b81810360608301526148028184613fdd565b9695505050505050565b602080825281016124088184613fdd565b6020808252810161240b816140f5565b6020808252810161240b81614154565b6020808252810161240b8161418d565b6020808252810161240b816141ec565b6020808252810161240b81614225565b6020808252810161240b8161425e565b6020808252810161240b816142bd565b6020808252810161240b8161431c565b6020808252810161240b8161437b565b6020808252810161240b816143b4565b6020808252810161240b816143ed565b6020808252810161240b81614426565b6020808252810161240b8161445f565b6020808252810161240b81614498565b6020808252810161240b816144f7565b6020808252810161240b81614530565b6020808252810161240b8161458f565b6020808252810161240b816145c8565b6020808252810161240b81614601565b6020808252810161240b8161463a565b6020808252810161240b81614673565b6060810161240b82846146ac565b6020810161240b82846146e9565b6040810161499782856146e9565b818103602083015261361f8184614044565b608081016149b782876146e9565b6147e360208301866140ec565b6040810161476682856146e9565b606081016149e082866146e9565b6149ed60208301856146e9565b61361f6040830184613fd4565b60808101614a0882876146e9565b614a1560208301866146e9565b614a2260408301856146e9565b6147bf60608301846146e9565b6020810161240b82846146f2565b60405181810167ffffffffffffffff81118282101715614a5c57600080fd5b604052919050565b600067ffffffffffffffff821115614a7b57600080fd5b5060209081020190565b600067ffffffffffffffff821115614a9c57600080fd5b506020601f919091017fffffffffffffffffffffffffffffffffffffffffffffffffffffffffffffffe0160190565b60200190565b60009081526020902090565b5190565b90815260200190565b919050565b600061240b82614b12565b151590565b6dffffffffffffffffffffffffffff1690565b73ffffffffffffffffffffffffffffffffffffffff1690565b63ffffffff1690565b600061240b82610dcd565b82818337506000910152565b60005b83811015614b66578181015183820152602001614b4e565b838111156146e35750506000910152565b601f017fffffffffffffffffffffffffffffffffffffffffffffffffffffffffffffffe01690565b614ba881614aef565b81146110e857600080fd5b614ba881614afa565b614ba881614aff565b614ba881610dcd565b614ba881614b2b56fea365627a7a72315820dcd9daff691f66218fc3948822152e78befbaa7535fbf92a919683d0c12b5e556c6578706572696d656e74616cf564736f6c63430005110040",
  "source": "pragma solidity 0.5.17;\npragma experimental ABIEncoderV2;\n\nimport \"../lib/SafeERC20.sol\";\nimport \"../lib/SafeMath.sol\";\nimport '../lib/IUniswapV2Pair.sol';\nimport \"../lib/UniswapV2OracleLibrary.sol\";\nimport \"../elastictokens/iElasticTokenInterface.sol\";\n\n\ninterface BAL {\n    function gulp(address token) external;\n}\n\ncontract iTokenRebaser {\n\n    using SafeMath for uint256;\n\n    modifier onlyGov() {\n        require(msg.sender == gov);\n        _;\n    }\n\n    struct Transaction {\n        bool enabled;\n        address destination;\n        bytes data;\n    }\n\n    struct UniVars {\n        uint256 itokensToUni;\n        uint256 amountFromReserves;\n        uint256 mintToReserves;\n    }\n\n    /// @notice an event emitted when a transaction fails\n    event TransactionFailed(address indexed destination, uint index, bytes data);\n\n    /// @notice an event emitted when maxSlippageFactor is changed\n    event NewMaxSlippageFactor(uint256 oldSlippageFactor, uint256 newSlippageFactor);\n\n    /// @notice an event emitted when deviationThreshold is changed\n    event NewDeviationThreshold(uint256 oldDeviationThreshold, uint256 newDeviationThreshold);\n\n    /**\n     * @notice Sets the treasury mint percentage of rebase\n     */\n    event NewRebaseMintPercent(uint256 oldRebaseMintPerc, uint256 newRebaseMintPerc);\n\n\n    /**\n     * @notice Sets the reserve contract\n     */\n    event NewReserveContract(address oldReserveContract, address newReserveContract);\n\n    /**\n     * @notice Sets the reserve contract\n     */\n    event TreasuryIncreased(uint256 reservesAdded, uint256 itokensSold, uint256 itokensFromReserves, uint256 itokensToReserves);\n\n\n    /**\n     * @notice Event emitted when pendingGov is changed\n     */\n    event NewPendingGov(address oldPendingGov, address newPendingGov);\n\n    /**\n     * @notice Event emitted when gov is changed\n     */\n    event NewGov(address oldGov, address newGov);\n\n    // Stable ordering is not guaranteed.\n    Transaction[] public transactions;\n\n\n    /// @notice Governance address\n    address public gov;\n\n    /// @notice Pending Governance address\n    address public pendingGov;\n\n    /// @notice Spreads out getting to the target price\n    uint256 public rebaseLag;\n\n    /// @notice Peg target\n    uint256 public targetRate;\n\n    /// @notice Percent of rebase that goes to minting for treasury building\n    uint256 public rebaseMintPerc;\n\n    // If the current exchange rate is within this fractional distance from the target, no supply\n    // update is performed. Fixed point number--same format as the rate.\n    // (ie) abs(rate - targetRate) / targetRate < deviationThreshold, then no supply change.\n    uint256 public deviationThreshold;\n\n    /// @notice More than this much time must pass between rebase operations.\n    uint256 public minRebaseTimeIntervalSec;\n\n    /// @notice Block timestamp of last rebase operation\n    uint256 public lastRebaseTimestampSec;\n\n    /// @notice The rebase window begins this many seconds into the minRebaseTimeInterval period.\n    // For example if minRebaseTimeInterval is 24hrs, it represents the time of day in seconds.\n    uint256 public rebaseWindowOffsetSec;\n\n    /// @notice The length of the time window where a rebase operation is allowed to execute, in seconds.\n    uint256 public rebaseWindowLengthSec;\n\n    /// @notice The number of rebase cycles since inception\n    uint256 public epoch;\n\n    // rebasing is not active initially. It can be activated at T+12 hours from\n    // deployment time\n    ///@notice boolean showing rebase activation status\n    bool public rebasingActive;\n\n    /// @notice delays rebasing activation to facilitate liquidity\n    uint256 public constant rebaseDelay = 1 days;\n\n    /// @notice Time of TWAP initialization\n    uint256 public timeOfTWAPInit;\n\n    /// @notice iToken token address\n    address public itokenAddress;\n\n    /// @notice reserve token\n    address public reserveToken;\n\n    /// @notice Reserves vault contract\n    address public reservesContract;\n\n    /// @notice pair for reserveToken <> iToken\n    address public uniswap_pair;\n\n    /// @notice list of uniswap pairs to sync\n    address[] public uniSyncPairs;\n\n    /// @notice list of balancer pairs to gulp\n    address[] public balGulpPairs;\n\n    /// @notice last TWAP update time\n    uint32 public blockTimestampLast;\n\n    /// @notice last TWAP cumulative price;\n    uint256 public priceCumulativeLast;\n\n    /// @notice address to send part of treasury to\n    address public publicGoods;\n\n    /// @notice percentage of treasury to send to public goods address\n    uint256 public publicGoodsPerc;\n\n    // Max slippage factor when buying reserve token. Magic number based on\n    // the fact that uniswap is a constant product. Therefore,\n    // targeting a % max slippage can be achieved by using a single precomputed\n    // number. i.e. 2.5% slippage is always equal to some f(maxSlippageFactor, reserves)\n    /// @notice the maximum slippage factor when buying reserve token\n    uint256 public maxSlippageFactor;\n\n    /// @notice Whether or not this token is first in uniswap iToken<>Reserve pair\n    bool public isToken0;\n\n    uint256 public constant BASE = 10 ** 18;\n\n    uint256 public constant MAX_SLIPPAGE_PARAM = 1180339 * 10 ** 11; // max ~20% market impact\n\n    uint256 public constant MAX_MINT_PERC_PARAM = 25 * 10 ** 16; // max 25% of rebase can go to treasury\n\n    constructor(\n        address itokenAddress_,\n        address reserveToken_,\n        address uniswap_factory,\n        address reservesContract_,\n        address publicGoods_,\n        uint256 publicGoodsPerc_\n    )\n    public\n    {\n        minRebaseTimeIntervalSec = 12 hours;\n        rebaseWindowOffsetSec = 28800;\n        // 8am/8pm UTC rebases\n\n        (address token0, address token1) = sortTokens(itokenAddress_, reserveToken_);\n\n        // used for interacting with uniswap\n        if (token0 == itokenAddress_) {\n            isToken0 = true;\n        } else {\n            isToken0 = false;\n        }\n        // uniswap iToken<>Reserve pair\n        uniswap_pair = pairFor(uniswap_factory, token0, token1);\n\n        uniSyncPairs.push(uniswap_pair);\n\n        // Reserves contract is mutable\n        reservesContract = reservesContract_;\n\n        // Reserve token is not mutable. Must deploy a new rebaser to update it\n        reserveToken = reserveToken_;\n\n        itokenAddress = itokenAddress_;\n\n        publicGoods = publicGoods_;\n\n        publicGoodsPerc = publicGoodsPerc_;\n\n        // target 10% slippage\n        // 5.4%\n        maxSlippageFactor = 5409258 * 10 ** 10;\n\n        // 1:1 peg\n        targetRate = BASE;\n\n        // twice daily rebase, with targeting reaching peg in 5 days\n        rebaseLag = 10;\n\n        // 10%\n        rebaseMintPerc = 10 ** 17;\n\n        // 5%\n        deviationThreshold = 5 * 10 ** 16;\n\n        // 60 minutes\n        rebaseWindowLengthSec = 60 * 60;\n\n        // Changed in deployment scripts to facilitate protocol initiation\n        gov = msg.sender;\n\n    }\n\n    function removeUniPair(uint256 index) public onlyGov {\n        if (index >= uniSyncPairs.length) return;\n\n        for (uint i = index; i < uniSyncPairs.length - 1; i++) {\n            uniSyncPairs[i] = uniSyncPairs[i + 1];\n        }\n        uniSyncPairs.length--;\n    }\n\n    function removeBalPair(uint256 index) public onlyGov {\n        if (index >= balGulpPairs.length) return;\n\n        for (uint i = index; i < balGulpPairs.length - 1; i++) {\n            balGulpPairs[i] = balGulpPairs[i + 1];\n        }\n        balGulpPairs.length--;\n    }\n\n    /**\n    @notice Adds pairs to sync\n    *\n    */\n    function addSyncPairs(address[] memory uniSyncPairs_, address[] memory balGulpPairs_)\n    public\n    onlyGov\n    {\n        for (uint256 i = 0; i < uniSyncPairs_.length; i++) {\n            uniSyncPairs.push(uniSyncPairs_[i]);\n        }\n\n        for (uint256 i = 0; i < balGulpPairs_.length; i++) {\n            balGulpPairs.push(balGulpPairs_[i]);\n        }\n    }\n\n    /**\n    @notice Uniswap synced pairs\n    *\n    */\n    function getUniSyncPairs()\n    public\n    view\n    returns (address[] memory)\n    {\n        address[] memory pairs = uniSyncPairs;\n        return pairs;\n    }\n\n    /**\n    @notice Uniswap synced pairs\n    *\n    */\n    function getBalGulpPairs()\n    public\n    view\n    returns (address[] memory)\n    {\n        address[] memory pairs = balGulpPairs;\n        return pairs;\n    }\n\n    /**\n    @notice Updates public goods address\n    @param publicGoods_ the new public goods address\n    *\n    */\n    function setPublicGoods(address publicGoods_) public onlyGov\n    {\n        publicGoods = publicGoods_;\n    }\n\n    /**\n    @notice Update percent of treasury to public goods address\n    @param publicGoodsPerc_ the new percent of treasury to public goods address\n    *\n    */\n    function setPublicGoodsPerc(uint256 publicGoodsPerc_) public onlyGov\n    {\n        publicGoodsPerc = publicGoodsPerc_;\n    }\n\n    /**\n    @notice Updates slippage factor\n    @param maxSlippageFactor_ the new slippage factor\n    *\n    */\n    function setMaxSlippageFactor(uint256 maxSlippageFactor_)\n    public\n    onlyGov\n    {\n        require(maxSlippageFactor_ < MAX_SLIPPAGE_PARAM);\n        uint256 oldSlippageFactor = maxSlippageFactor;\n        maxSlippageFactor = maxSlippageFactor_;\n        emit NewMaxSlippageFactor(oldSlippageFactor, maxSlippageFactor_);\n    }\n\n    /**\n    @notice Updates rebase mint percentage\n    @param rebaseMintPerc_ the new rebase mint percentage\n    *\n    */\n    function setRebaseMintPerc(uint256 rebaseMintPerc_)\n    public\n    onlyGov\n    {\n        require(rebaseMintPerc_ < MAX_MINT_PERC_PARAM);\n        uint256 oldPerc = rebaseMintPerc;\n        rebaseMintPerc = rebaseMintPerc_;\n        emit NewRebaseMintPercent(oldPerc, rebaseMintPerc_);\n    }\n\n\n    /**\n    @notice Updates reserve contract\n    @param reservesContract_ the new reserve contract\n    *\n    */\n    function setReserveContract(address reservesContract_)\n    public\n    onlyGov\n    {\n        address oldReservesContract = reservesContract;\n        reservesContract = reservesContract_;\n        emit NewReserveContract(oldReservesContract, reservesContract_);\n    }\n\n\n    /** @notice sets the pendingGov\n     * @param pendingGov_ The address of the rebaser contract to use for authentication.\n     */\n    function _setPendingGov(address pendingGov_)\n    external\n    onlyGov\n    {\n        address oldPendingGov = pendingGov;\n        pendingGov = pendingGov_;\n        emit NewPendingGov(oldPendingGov, pendingGov_);\n    }\n\n    /** @notice lets msg.sender accept governance\n     *\n     */\n    function _acceptGov()\n    external\n    {\n        require(msg.sender == pendingGov, \"!pending\");\n        address oldGov = gov;\n        gov = pendingGov;\n        pendingGov = address(0);\n        emit NewGov(oldGov, gov);\n    }\n\n    /** @notice Initializes TWAP start point, starts countdown to first rebase\n    *\n    */\n    function init_twap()\n    public\n    {\n        require(timeOfTWAPInit == 0, \"already activated\");\n        (uint priceCumulative, uint32 blockTimestamp) =\n        UniswapV2OracleLibrary.currentCumulativePrices(uniswap_pair, isToken0);\n        require(blockTimestamp > 0, \"no trades\");\n        blockTimestampLast = blockTimestamp;\n        priceCumulativeLast = priceCumulative;\n        timeOfTWAPInit = blockTimestamp;\n    }\n\n    /** @notice Activates rebasing\n    *   @dev One way function, cannot be undone, callable by anyone\n    */\n    function activate_rebasing()\n    public\n    {\n        require(timeOfTWAPInit > 0, \"twap wasnt intitiated, call init_twap()\");\n        // cannot enable prior to end of rebaseDelay\n        require(now >= timeOfTWAPInit + rebaseDelay, \"!end_delay\");\n\n        rebasingActive = true;\n    }\n\n    /**\n     * @notice Initiates a new rebase operation, provided the minimum time period has elapsed.\n     *\n     * @dev The supply adjustment equals (_totalSupply * DeviationFromTargetRate) / rebaseLag\n     *      Where DeviationFromTargetRate is (MarketOracleRate - targetRate) / targetRate\n     *      and targetRate is 1e18\n     */\n    function rebase()\n    public\n    {\n        // EOA only or gov\n        require(msg.sender == tx.origin || msg.sender == gov);\n        // ensure rebasing at correct time\n        _inRebaseWindow();\n\n        // This comparison also ensures there is no reentrancy.\n        require(lastRebaseTimestampSec.add(minRebaseTimeIntervalSec) < now);\n\n        // Snap the rebase time to the start of this window.\n        lastRebaseTimestampSec = now.sub(\n            now.mod(minRebaseTimeIntervalSec)).add(rebaseWindowOffsetSec);\n\n        epoch = epoch.add(1);\n\n        // get twap from uniswap v2;\n        uint256 exchangeRate = getTWAP();\n\n        // calculates % change to supply\n        (uint256 offPegPerc, bool positive) = computeOffPegPerc(exchangeRate);\n\n        uint256 indexDelta = offPegPerc;\n\n        // Apply the Dampening factor.\n        indexDelta = indexDelta.div(rebaseLag);\n\n        iElasticTokenInterface itoken = iElasticTokenInterface(itokenAddress);\n\n        if (positive) {\n            require(itoken.itokensScalingFactor().mul(BASE.add(indexDelta)).div(BASE) < itoken.maxScalingFactor(), \"new scaling factor will be too big\");\n        }\n\n\n        uint256 currSupply = itoken.totalSupply();\n\n        uint256 mintAmount;\n        // reduce indexDelta to account for minting\n        if (positive) {\n            uint256 mintPerc = indexDelta.mul(rebaseMintPerc).div(BASE);\n            indexDelta = indexDelta.sub(mintPerc);\n            mintAmount = currSupply.mul(mintPerc).div(BASE);\n        }\n\n        // rebase\n        // ignore returned var\n        itoken.rebase(epoch, indexDelta, positive);\n\n        // perform actions after rebase\n        afterRebase(mintAmount, offPegPerc);\n    }\n\n\n    function uniswapV2Call(\n        address sender,\n        uint256 amount0,\n        uint256 amount1,\n        bytes memory data\n    )\n    public\n    {\n        // enforce that it is coming from uniswap\n        require(msg.sender == uniswap_pair, \"bad msg.sender\");\n        // enforce that this contract called uniswap\n        require(sender == address(this), \"bad origin\");\n        (UniVars memory uniVars) = abi.decode(data, (UniVars));\n\n        iElasticTokenInterface itoken = iElasticTokenInterface(itokenAddress);\n\n        if (uniVars.amountFromReserves > 0) {\n            // transfer from reserves and mint to uniswap\n            itoken.transferFrom(reservesContract, uniswap_pair, uniVars.amountFromReserves);\n            if (uniVars.amountFromReserves < uniVars.itokensToUni) {\n                // if the amount from reserves > itokensToUni, we have fully paid for the yCRV tokens\n                // thus this number would be 0 so no need to mint\n                itoken.mint(uniswap_pair, uniVars.itokensToUni.sub(uniVars.amountFromReserves));\n            }\n        } else {\n            // mint to uniswap\n            itoken.mint(uniswap_pair, uniVars.itokensToUni);\n        }\n\n        // mint unsold to mintAmount\n        if (uniVars.mintToReserves > 0) {\n            itoken.mint(reservesContract, uniVars.mintToReserves);\n        }\n\n        // transfer reserve token to reserves\n        if (isToken0) {\n            if (publicGoods != address(0) && publicGoodsPerc > 0) {\n                uint256 amountToPublicGoods = amount1.mul(publicGoodsPerc).div(BASE);\n                SafeERC20.safeTransfer(IERC20(reserveToken), reservesContract, amount1.sub(amountToPublicGoods));\n                SafeERC20.safeTransfer(IERC20(reserveToken), publicGoods, amountToPublicGoods);\n                emit TreasuryIncreased(amount1.sub(amountToPublicGoods), uniVars.itokensToUni, uniVars.amountFromReserves, uniVars.mintToReserves);\n            } else {\n                SafeERC20.safeTransfer(IERC20(reserveToken), reservesContract, amount1);\n                emit TreasuryIncreased(amount1, uniVars.itokensToUni, uniVars.amountFromReserves, uniVars.mintToReserves);\n            }\n        } else {\n            if (publicGoods != address(0) && publicGoodsPerc > 0) {\n                uint256 amountToPublicGoods = amount0.mul(publicGoodsPerc).div(BASE);\n                SafeERC20.safeTransfer(IERC20(reserveToken), reservesContract, amount0.sub(amountToPublicGoods));\n                SafeERC20.safeTransfer(IERC20(reserveToken), publicGoods, amountToPublicGoods);\n                emit TreasuryIncreased(amount0.sub(amountToPublicGoods), uniVars.itokensToUni, uniVars.amountFromReserves, uniVars.mintToReserves);\n            } else {\n                SafeERC20.safeTransfer(IERC20(reserveToken), reservesContract, amount0);\n                emit TreasuryIncreased(amount0, uniVars.itokensToUni, uniVars.amountFromReserves, uniVars.mintToReserves);\n            }\n        }\n    }\n\n    function buyReserveAndTransfer(\n        uint256 mintAmount,\n        uint256 offPegPerc\n    )\n    internal\n    {\n        UniswapPair pair = UniswapPair(uniswap_pair);\n\n        iElasticTokenInterface itoken = iElasticTokenInterface(itokenAddress);\n\n        // get reserves\n        (uint256 token0Reserves, uint256 token1Reserves,) = pair.getReserves();\n\n        // check if protocol has excess itoken in the reserve\n        uint256 excess = itoken.balanceOf(reservesContract);\n\n\n        uint256 tokens_to_max_slippage = uniswapMaxSlippage(token0Reserves, token1Reserves, offPegPerc);\n\n        UniVars memory uniVars = UniVars({\n            itokensToUni : tokens_to_max_slippage, // how many itokens uniswap needs\n            amountFromReserves : excess, // how much of itokensToUni comes from reserves\n            mintToReserves : 0 // how much itokens protocol mints to reserves\n            });\n\n        // tries to sell all mint + excess\n        // falls back to selling some of mint and all of excess\n        // if all else fails, sells portion of excess\n        // upon pair.swap, `uniswapV2Call` is called by the uniswap pair contract\n        if (isToken0) {\n            if (tokens_to_max_slippage > mintAmount.add(excess)) {\n                // we already have performed a safemath check on mintAmount+excess\n                // so we dont need to continue using it in this code path\n\n                // can handle selling all of reserves and mint\n                uint256 buyTokens = getAmountOut(mintAmount + excess, token0Reserves, token1Reserves);\n                uniVars.itokensToUni = mintAmount + excess;\n                uniVars.amountFromReserves = excess;\n                // call swap using entire mint amount and excess; mint 0 to reserves\n                pair.swap(0, buyTokens, address(this), abi.encode(uniVars));\n            } else {\n                if (tokens_to_max_slippage > excess) {\n                    // uniswap can handle entire reserves\n                    uint256 buyTokens = getAmountOut(tokens_to_max_slippage, token0Reserves, token1Reserves);\n\n                    // swap up to slippage limit, taking entire itoken reserves, and minting part of total\n                    uniVars.mintToReserves = mintAmount.sub((tokens_to_max_slippage - excess));\n                    pair.swap(0, buyTokens, address(this), abi.encode(uniVars));\n                } else {\n                    // uniswap cant handle all of excess\n                    uint256 buyTokens = getAmountOut(tokens_to_max_slippage, token0Reserves, token1Reserves);\n                    uniVars.amountFromReserves = tokens_to_max_slippage;\n                    uniVars.mintToReserves = mintAmount;\n                    // swap up to slippage limit, taking excess - remainingExcess from reserves, and minting full amount\n                    // to reserves\n                    pair.swap(0, buyTokens, address(this), abi.encode(uniVars));\n                }\n            }\n        } else {\n            if (tokens_to_max_slippage > mintAmount.add(excess)) {\n                // can handle all of reserves and mint\n                uint256 buyTokens = getAmountOut(mintAmount + excess, token1Reserves, token0Reserves);\n                uniVars.itokensToUni = mintAmount + excess;\n                uniVars.amountFromReserves = excess;\n                // call swap using entire mint amount and excess; mint 0 to reserves\n                pair.swap(buyTokens, 0, address(this), abi.encode(uniVars));\n            } else {\n                if (tokens_to_max_slippage > excess) {\n                    // uniswap can handle entire reserves\n                    uint256 buyTokens = getAmountOut(tokens_to_max_slippage, token1Reserves, token0Reserves);\n\n                    // swap up to slippage limit, taking entire itoken reserves, and minting part of total\n                    uniVars.mintToReserves = mintAmount.sub((tokens_to_max_slippage - excess));\n                    // swap up to slippage limit, taking entire itoken reserves, and minting part of total\n                    pair.swap(buyTokens, 0, address(this), abi.encode(uniVars));\n                } else {\n                    // uniswap cant handle all of excess\n                    uint256 buyTokens = getAmountOut(tokens_to_max_slippage, token1Reserves, token0Reserves);\n                    uniVars.amountFromReserves = tokens_to_max_slippage;\n                    uniVars.mintToReserves = mintAmount;\n                    // swap up to slippage limit, taking excess - remainingExcess from reserves, and minting full amount\n                    // to reserves\n                    pair.swap(buyTokens, 0, address(this), abi.encode(uniVars));\n                }\n            }\n        }\n    }\n\n    function uniswapMaxSlippage(\n        uint256 token0,\n        uint256 token1,\n        uint256 offPegPerc\n    )\n    internal\n    view\n    returns (uint256)\n    {\n        if (isToken0) {\n            if (offPegPerc >= 10 ** 17) {\n                // cap slippage\n                return token0.mul(maxSlippageFactor).div(BASE);\n            } else {\n                // in the 5-10% off peg range, slippage is essentially 2*x (where x is percentage of pool to buy).\n                // all we care about is not pushing below the peg, so underestimate\n                // the amount we can sell by dividing by 3. resulting price impact\n                // should be ~= offPegPerc * 2 / 3, which will keep us above the peg\n                //\n                // this is a conservative heuristic\n                return token0.mul(offPegPerc).div(3 * BASE);\n            }\n        } else {\n            if (offPegPerc >= 10 ** 17) {\n                return token1.mul(maxSlippageFactor).div(BASE);\n            } else {\n                return token1.mul(offPegPerc).div(3 * BASE);\n            }\n        }\n    }\n\n    /**\n     * @notice given an input amount of an asset and pair reserves, returns the maximum output amount of the other asset\n     *\n     * @param amountIn input amount of the asset\n     * @param reserveIn reserves of the asset being sold\n     * @param reserveOut reserves if the asset being purchased\n     */\n\n    function getAmountOut(\n        uint amountIn,\n        uint reserveIn,\n        uint reserveOut\n    )\n    internal\n    pure\n    returns (uint amountOut)\n    {\n        require(amountIn > 0, 'UniswapV2Library: INSUFFICIENT_INPUT_AMOUNT');\n        require(reserveIn > 0 && reserveOut > 0, 'UniswapV2Library: INSUFFICIENT_LIQUIDITY');\n        uint amountInWithFee = amountIn.mul(997);\n        uint numerator = amountInWithFee.mul(reserveOut);\n        uint denominator = reserveIn.mul(1000).add(amountInWithFee);\n        amountOut = numerator / denominator;\n    }\n\n\n    function afterRebase(\n        uint256 mintAmount,\n        uint256 offPegPerc\n    )\n    internal\n    {\n        // update uniswap pairs\n        for (uint256 i = 0; i < uniSyncPairs.length; i++) {\n            UniswapPair(uniSyncPairs[i]).sync();\n        }\n        // update balancer pairs\n        for (uint256 i = 0; i < balGulpPairs.length; i++) {\n            BAL(balGulpPairs[i]).gulp(itokenAddress);\n        }\n\n        if (mintAmount > 0) {\n            buyReserveAndTransfer(\n                mintAmount,\n                offPegPerc\n            );\n        }\n\n        // call any extra functions\n        for (uint i = 0; i < transactions.length; i++) {\n            Transaction storage t = transactions[i];\n            if (t.enabled) {\n                bool result =\n                externalCall(t.destination, t.data);\n                if (!result) {\n                    emit TransactionFailed(t.destination, i, t.data);\n                    revert(\"Transaction Failed\");\n                }\n            }\n        }\n    }\n\n\n    /**\n     * @notice Calculates TWAP from uniswap\n     *\n     * @dev When liquidity is low, this can be manipulated by an end of block -> next block\n     *      attack. We delay the activation of rebases 12 hours after liquidity incentives\n     *      to reduce this attack vector. Additional there is very little supply\n     *      to be able to manipulate this during that time period of highest vuln.\n     */\n    function getTWAP()\n    internal\n    returns (uint256)\n    {\n\n        (uint priceCumulative, uint32 blockTimestamp) = UniswapV2OracleLibrary.currentCumulativePrices(uniswap_pair, isToken0);\n        uint32 timeElapsed = blockTimestamp - blockTimestampLast;\n        // overflow is desired\n        // no period check as is done in isRebaseWindow\n        // overflow is desired\n        uint256 priceAverage = uint256(uint224((priceCumulative - priceCumulativeLast) / timeElapsed));\n\n        priceCumulativeLast = priceCumulative;\n        blockTimestampLast = blockTimestamp;\n\n        // BASE is on order of 1e18, which takes 2^60 bits\n        // multiplication will revert if priceAverage > 2^196\n        // (which it can because it overflows intentially)\n        if (priceAverage > uint192(- 1)) {\n            // eat loss of precision\n            // effectively: (x / 2**112) * 1e18\n            return (priceAverage >> 112) * BASE;\n        }\n        // cant overflow\n        // effectively: (x * 1e18 / 2**112)\n        return (priceAverage * BASE) >> 112;\n    }\n\n    /**\n     * @notice Calculates current TWAP from uniswap\n     *\n     */\n    function getCurrentTWAP()\n    public\n    view\n    returns (uint256)\n    {\n        (uint priceCumulative, uint32 blockTimestamp) =\n        UniswapV2OracleLibrary.currentCumulativePrices(uniswap_pair, isToken0);\n        uint32 timeElapsed = blockTimestamp - blockTimestampLast;\n        // overflow is desired\n\n        // no period check as is done in isRebaseWindow\n\n        // overflow is desired\n        uint256 priceAverage = uint256(uint224((priceCumulative - priceCumulativeLast) / timeElapsed));\n        // BASE is on order of 1e18, which takes 2^60 bits\n        // multiplication will revert if priceAverage > 2^196\n        // (which it can because it overflows intentially)\n        if (priceAverage > uint192(- 1)) {\n            // eat loss of precision\n            // effectively: (x / 2**112) * 1e18\n            return (priceAverage >> 112) * BASE;\n        }\n        // cant overflow\n        // effectively: (x * 1e18 / 2**112)\n        return (priceAverage * BASE) >> 112;\n    }\n\n    /**\n     * @notice Sets the deviation threshold fraction. If the exchange rate given by the market\n     *         oracle is within this fractional distance from the targetRate, then no supply\n     *         modifications are made.\n     * @param deviationThreshold_ The new exchange rate threshold fraction.\n     */\n    function setDeviationThreshold(uint256 deviationThreshold_)\n    external\n    onlyGov\n    {\n        require(deviationThreshold > 0);\n        uint256 oldDeviationThreshold = deviationThreshold;\n        deviationThreshold = deviationThreshold_;\n        emit NewDeviationThreshold(oldDeviationThreshold, deviationThreshold_);\n    }\n\n    /**\n     * @notice Sets the rebase lag parameter.\n               It is used to dampen the applied supply adjustment by 1 / rebaseLag\n               If the rebase lag R, equals 1, the smallest value for R, then the full supply\n               correction is applied on each rebase cycle.\n               If it is greater than 1, then a correction of 1/R of is applied on each rebase.\n     * @param rebaseLag_ The new rebase lag parameter.\n     */\n    function setRebaseLag(uint256 rebaseLag_)\n    external\n    onlyGov\n    {\n        require(rebaseLag_ > 0);\n        rebaseLag = rebaseLag_;\n    }\n\n    /**\n     * @notice Sets the targetRate parameter.\n     * @param targetRate_ The new target rate parameter.\n     */\n    function setTargetRate(uint256 targetRate_)\n    external\n    onlyGov\n    {\n        require(targetRate_ > 0);\n        targetRate = targetRate_;\n    }\n\n    /**\n     * @notice Sets the parameters which control the timing and frequency of\n     *         rebase operations.\n     *         a) the minimum time period that must elapse between rebase cycles.\n     *         b) the rebase window offset parameter.\n     *         c) the rebase window length parameter.\n     * @param minRebaseTimeIntervalSec_ More than this much time must pass between rebase\n     *        operations, in seconds.\n     * @param rebaseWindowOffsetSec_ The number of seconds from the beginning of\n              the rebase interval, where the rebase window begins.\n     * @param rebaseWindowLengthSec_ The length of the rebase window in seconds.\n     */\n    function setRebaseTimingParameters(\n        uint256 minRebaseTimeIntervalSec_,\n        uint256 rebaseWindowOffsetSec_,\n        uint256 rebaseWindowLengthSec_)\n    external\n    onlyGov\n    {\n        require(minRebaseTimeIntervalSec_ > 0);\n        require(rebaseWindowOffsetSec_ < minRebaseTimeIntervalSec_);\n        require(rebaseWindowOffsetSec_ + rebaseWindowLengthSec_ < minRebaseTimeIntervalSec_);\n\n        minRebaseTimeIntervalSec = minRebaseTimeIntervalSec_;\n        rebaseWindowOffsetSec = rebaseWindowOffsetSec_;\n        rebaseWindowLengthSec = rebaseWindowLengthSec_;\n    }\n\n    /**\n     * @return If the latest block timestamp is within the rebase time window it, returns true.\n     *         Otherwise, returns false.\n     */\n    function inRebaseWindow() public view returns (bool) {\n\n        // rebasing is delayed until there is a liquid market\n        _inRebaseWindow();\n        return true;\n    }\n\n    function _inRebaseWindow() internal view {\n\n        // rebasing is delayed until there is a liquid market\n        require(rebasingActive, \"rebasing not active\");\n\n        require(now.mod(minRebaseTimeIntervalSec) >= rebaseWindowOffsetSec, \"too early\");\n        require(now.mod(minRebaseTimeIntervalSec) < (rebaseWindowOffsetSec.add(rebaseWindowLengthSec)), \"too late\");\n    }\n\n    /**\n     * @return Computes in % how far off market is from peg\n     */\n    function computeOffPegPerc(uint256 rate)\n    private\n    view\n    returns (uint256, bool)\n    {\n        if (withinDeviationThreshold(rate)) {\n            return (0, false);\n        }\n\n        // indexDelta =  (rate - targetRate) / targetRate\n        if (rate > targetRate) {\n            return (rate.sub(targetRate).mul(BASE).div(targetRate), true);\n        } else {\n            return (targetRate.sub(rate).mul(BASE).div(targetRate), false);\n        }\n    }\n\n    /**\n     * @param rate The current exchange rate, an 18 decimal fixed point number.\n     * @return If the rate is within the deviation threshold from the target rate, returns true.\n     *         Otherwise, returns false.\n     */\n    function withinDeviationThreshold(uint256 rate)\n    private\n    view\n    returns (bool)\n    {\n        uint256 absoluteDeviationThreshold = targetRate.mul(deviationThreshold)\n        .div(10 ** 18);\n\n        return (rate >= targetRate && rate.sub(targetRate) < absoluteDeviationThreshold)\n        || (rate < targetRate && targetRate.sub(rate) < absoluteDeviationThreshold);\n    }\n\n    /* - Constructor Helpers - */\n\n    // calculates the CREATE2 address for a pair without making any external calls\n    function pairFor(\n        address factory,\n        address token0,\n        address token1\n    )\n    internal\n    pure\n    returns (address pair)\n    {\n        pair = address(uint(keccak256(abi.encodePacked(\n                hex'ff',\n                factory,\n                keccak256(abi.encodePacked(token0, token1)),\n                hex'c1c39578ac88490fe2205a42473b4c3d7eca7a1df6c3ed697d5f61c064bf70b4' // init code hash\n            ))));\n    }\n\n    // returns sorted token addresses, used to handle return values from pairs sorted in this order\n    function sortTokens(\n        address tokenA,\n        address tokenB\n    )\n    internal\n    pure\n    returns (address token0, address token1)\n    {\n        require(tokenA != tokenB, 'UniswapV2Library: IDENTICAL_ADDRESSES');\n        (token0, token1) = tokenA < tokenB ? (tokenA, tokenB) : (tokenB, tokenA);\n        require(token0 != address(0), 'UniswapV2Library: ZERO_ADDRESS');\n    }\n\n    /* -- Rebase helpers -- */\n\n    /**\n     * @notice Adds a transaction that gets called for a downstream receiver of rebases\n     * @param destination Address of contract destination\n     * @param data Transaction data payload\n     */\n    function addTransaction(address destination, bytes calldata data)\n    external\n    onlyGov\n    {\n        transactions.push(Transaction({\n            enabled : true,\n            destination : destination,\n            data : data\n            }));\n    }\n\n\n    /**\n     * @param index Index of transaction to remove.\n     *              Transaction ordering may have changed since adding.\n     */\n    function removeTransaction(uint index)\n    external\n    onlyGov\n    {\n        require(index < transactions.length, \"index out of bounds\");\n\n        if (index < transactions.length - 1) {\n            transactions[index] = transactions[transactions.length - 1];\n        }\n\n        transactions.length--;\n    }\n\n    /**\n     * @param index Index of transaction. Transaction ordering may have changed since adding.\n     * @param enabled True for enabled, false for disabled.\n     */\n    function setTransactionEnabled(uint index, bool enabled)\n    external\n    onlyGov\n    {\n        require(index < transactions.length, \"index must be in range of stored tx list\");\n        transactions[index].enabled = enabled;\n    }\n\n    /**\n     * @dev wrapper to call the encoded transactions on downstream consumers.\n     * @param destination Address of destination contract.\n     * @param data The encoded data payload.\n     * @return True on success\n     */\n    function externalCall(address destination, bytes memory data)\n    internal\n    returns (bool)\n    {\n        bool result;\n        assembly {// solhint-disable-line no-inline-assembly\n        // \"Allocate\" memory for output\n        // (0x40 is where \"free memory\" pointer is stored by convention)\n            let outputAddress := mload(0x40)\n\n        // First 32 bytes are the padded length of data, so exclude that\n            let dataAddress := add(data, 32)\n\n            result := call(\n            // 34710 is the value that solidity is currently emitting\n            // It includes callGas (700) + callVeryLow (3, to pay for SUB)\n            // + callValueTransferGas (9000) + callNewAccountGas\n            // (25000, in case the destination address does not exist and needs creating)\n            sub(gas, 34710),\n\n\n            destination,\n            0, // transfer value in wei\n            dataAddress,\n            mload(data), // Size of the input, in bytes. Stored in position 0 of the array.\n            outputAddress,\n            0  // Output is ignored, therefore the output size is zero\n            )\n        }\n        return result;\n    }\n\n    // Rescue tokens\n    function rescueTokens(\n        address token,\n        address to,\n        uint256 amount\n    )\n    external\n    onlyGov\n    returns (bool)\n    {\n        // transfer to\n        SafeERC20.safeTransfer(IERC20(token), to, amount);\n    }\n\n}\n",
  "sourcePath": "/Users/breeze/codespace/eth/itoken-protocol/contracts/rebaser/iTokenRebaser.sol",
  "compiler": {
    "name": "solc",
    "version": "0.5.17+commit.d19bba13.Emscripten.clang"
  },
  "schemaVersion": "3.3.2",
  "updatedAt": "2020-11-28T14:30:31.884Z",
  "networkType": "ethereum",
  "devdoc": {
    "methods": {
      "_setPendingGov(address)": {
        "params": {
          "pendingGov_": "The address of the rebaser contract to use for authentication."
        }
      },
      "activate_rebasing()": {
        "details": "One way function, cannot be undone, callable by anyone"
      },
      "addTransaction(address,bytes)": {
        "params": {
          "data": "Transaction data payload",
          "destination": "Address of contract destination"
        }
      },
      "inRebaseWindow()": {
        "return": "If the latest block timestamp is within the rebase time window it, returns true.        Otherwise, returns false."
      },
      "rebase()": {
        "details": "The supply adjustment equals (_totalSupply * DeviationFromTargetRate) / rebaseLag     Where DeviationFromTargetRate is (MarketOracleRate - targetRate) / targetRate     and targetRate is 1e18"
      },
      "removeTransaction(uint256)": {
        "params": {
          "index": "Index of transaction to remove.             Transaction ordering may have changed since adding."
        }
      },
      "setDeviationThreshold(uint256)": {
        "params": {
          "deviationThreshold_": "The new exchange rate threshold fraction."
        }
      },
      "setMaxSlippageFactor(uint256)": {
        "params": {
          "maxSlippageFactor_": "the new slippage factor    "
        }
      },
      "setPublicGoods(address)": {
        "params": {
          "publicGoods_": "the new public goods address    "
        }
      },
      "setPublicGoodsPerc(uint256)": {
        "params": {
          "publicGoodsPerc_": "the new percent of treasury to public goods address    "
        }
      },
      "setRebaseLag(uint256)": {
        "params": {
          "rebaseLag_": "The new rebase lag parameter."
        }
      },
      "setRebaseMintPerc(uint256)": {
        "params": {
          "rebaseMintPerc_": "the new rebase mint percentage    "
        }
      },
      "setRebaseTimingParameters(uint256,uint256,uint256)": {
        "params": {
          "minRebaseTimeIntervalSec_": "More than this much time must pass between rebase       operations, in seconds.",
          "rebaseWindowLengthSec_": "The length of the rebase window in seconds.",
          "rebaseWindowOffsetSec_": "The number of seconds from the beginning of the rebase interval, where the rebase window begins."
        }
      },
      "setReserveContract(address)": {
        "params": {
          "reservesContract_": "the new reserve contract    "
        }
      },
      "setTargetRate(uint256)": {
        "params": {
          "targetRate_": "The new target rate parameter."
        }
      },
      "setTransactionEnabled(uint256,bool)": {
        "params": {
          "enabled": "True for enabled, false for disabled.",
          "index": "Index of transaction. Transaction ordering may have changed since adding."
        }
      }
    }
  },
  "userdoc": {
    "methods": {
      "_acceptGov()": {
        "notice": "lets msg.sender accept governance     "
      },
      "_setPendingGov(address)": {
        "notice": "sets the pendingGov"
      },
      "activate_rebasing()": {
        "notice": "Activates rebasing"
      },
      "addSyncPairs(address[],address[])": {
        "notice": "Adds pairs to sync    "
      },
      "addTransaction(address,bytes)": {
        "notice": "Adds a transaction that gets called for a downstream receiver of rebases"
      },
      "getBalGulpPairs()": {
        "notice": "Uniswap synced pairs    "
      },
      "getCurrentTWAP()": {
        "notice": "Calculates current TWAP from uniswap     "
      },
      "getUniSyncPairs()": {
        "notice": "Uniswap synced pairs    "
      },
      "init_twap()": {
        "notice": "Initializes TWAP start point, starts countdown to first rebase    "
      },
      "rebase()": {
        "notice": "Initiates a new rebase operation, provided the minimum time period has elapsed."
      },
      "setDeviationThreshold(uint256)": {
        "notice": "Sets the deviation threshold fraction. If the exchange rate given by the market        oracle is within this fractional distance from the targetRate, then no supply        modifications are made."
      },
      "setMaxSlippageFactor(uint256)": {
        "notice": "Updates slippage factor"
      },
      "setPublicGoods(address)": {
        "notice": "Updates public goods address"
      },
      "setPublicGoodsPerc(uint256)": {
        "notice": "Update percent of treasury to public goods address"
      },
      "setRebaseLag(uint256)": {
        "notice": "Sets the rebase lag parameter. It is used to dampen the applied supply adjustment by 1 / rebaseLag If the rebase lag R, equals 1, the smallest value for R, then the full supply correction is applied on each rebase cycle. If it is greater than 1, then a correction of 1/R of is applied on each rebase."
      },
      "setRebaseMintPerc(uint256)": {
        "notice": "Updates rebase mint percentage"
      },
      "setRebaseTimingParameters(uint256,uint256,uint256)": {
        "notice": "Sets the parameters which control the timing and frequency of        rebase operations.        a) the minimum time period that must elapse between rebase cycles.        b) the rebase window offset parameter.        c) the rebase window length parameter."
      },
      "setReserveContract(address)": {
        "notice": "Updates reserve contract"
      },
      "setTargetRate(uint256)": {
        "notice": "Sets the targetRate parameter."
      }
    }
  }
}