{
  "contractName": "iTokenDelegator",
  "abi": [
    {
      "inputs": [
        {
          "internalType": "string",
          "name": "name_",
          "type": "string"
        },
        {
          "internalType": "string",
          "name": "symbol_",
          "type": "string"
        },
        {
          "internalType": "uint8",
          "name": "decimals_",
          "type": "uint8"
        },
        {
          "internalType": "uint256",
          "name": "initTotalSupply_",
          "type": "uint256"
        },
        {
          "internalType": "address",
          "name": "implementation_",
          "type": "address"
        },
        {
          "internalType": "bytes",
          "name": "becomeImplementationData",
          "type": "bytes"
        }
      ],
      "payable": false,
      "stateMutability": "nonpayable",
      "type": "constructor"
    },
    {
      "anonymous": false,
      "inputs": [
        {
          "indexed": true,
          "internalType": "address",
          "name": "owner",
          "type": "address"
        },
        {
          "indexed": true,
          "internalType": "address",
          "name": "spender",
          "type": "address"
        },
        {
          "indexed": false,
          "internalType": "uint256",
          "name": "amount",
          "type": "uint256"
        }
      ],
      "name": "Approval",
      "type": "event"
    },
    {
      "anonymous": false,
      "inputs": [
        {
          "indexed": false,
          "internalType": "address",
          "name": "from",
          "type": "address"
        },
        {
          "indexed": false,
          "internalType": "uint256",
          "name": "amount",
          "type": "uint256"
        }
      ],
      "name": "Burn",
      "type": "event"
    },
    {
      "anonymous": false,
      "inputs": [
        {
          "indexed": true,
          "internalType": "address",
          "name": "delegator",
          "type": "address"
        },
        {
          "indexed": true,
          "internalType": "address",
          "name": "fromDelegate",
          "type": "address"
        },
        {
          "indexed": true,
          "internalType": "address",
          "name": "toDelegate",
          "type": "address"
        }
      ],
      "name": "DelegateChanged",
      "type": "event"
    },
    {
      "anonymous": false,
      "inputs": [
        {
          "indexed": true,
          "internalType": "address",
          "name": "delegate",
          "type": "address"
        },
        {
          "indexed": false,
          "internalType": "uint256",
          "name": "previousBalance",
          "type": "uint256"
        },
        {
          "indexed": false,
          "internalType": "uint256",
          "name": "newBalance",
          "type": "uint256"
        }
      ],
      "name": "DelegateVotesChanged",
      "type": "event"
    },
    {
      "anonymous": false,
      "inputs": [
        {
          "indexed": false,
          "internalType": "address",
          "name": "to",
          "type": "address"
        },
        {
          "indexed": false,
          "internalType": "uint256",
          "name": "amount",
          "type": "uint256"
        }
      ],
      "name": "Mint",
      "type": "event"
    },
    {
      "anonymous": false,
      "inputs": [
        {
          "indexed": false,
          "internalType": "address",
          "name": "oldBanker",
          "type": "address"
        },
        {
          "indexed": false,
          "internalType": "address",
          "name": "newBanker",
          "type": "address"
        }
      ],
      "name": "NewBanker",
      "type": "event"
    },
    {
      "anonymous": false,
      "inputs": [
        {
          "indexed": false,
          "internalType": "address",
          "name": "oldGov",
          "type": "address"
        },
        {
          "indexed": false,
          "internalType": "address",
          "name": "newGov",
          "type": "address"
        }
      ],
      "name": "NewGov",
      "type": "event"
    },
    {
      "anonymous": false,
      "inputs": [
        {
          "indexed": false,
          "internalType": "address",
          "name": "oldImplementation",
          "type": "address"
        },
        {
          "indexed": false,
          "internalType": "address",
          "name": "newImplementation",
          "type": "address"
        }
      ],
      "name": "NewImplementation",
      "type": "event"
    },
    {
      "anonymous": false,
      "inputs": [
        {
          "indexed": false,
          "internalType": "address",
          "name": "oldIncentivizer",
          "type": "address"
        },
        {
          "indexed": false,
          "internalType": "address",
          "name": "newIncentivizer",
          "type": "address"
        }
      ],
      "name": "NewIncentivizer",
      "type": "event"
    },
    {
      "anonymous": false,
      "inputs": [
        {
          "indexed": false,
          "internalType": "address",
          "name": "oldPendingGov",
          "type": "address"
        },
        {
          "indexed": false,
          "internalType": "address",
          "name": "newPendingGov",
          "type": "address"
        }
      ],
      "name": "NewPendingGov",
      "type": "event"
    },
    {
      "anonymous": false,
      "inputs": [
        {
          "indexed": false,
          "internalType": "address",
          "name": "oldRebaser",
          "type": "address"
        },
        {
          "indexed": false,
          "internalType": "address",
          "name": "newRebaser",
          "type": "address"
        }
      ],
      "name": "NewRebaser",
      "type": "event"
    },
    {
      "anonymous": false,
      "inputs": [
        {
          "indexed": false,
          "internalType": "uint256",
          "name": "epoch",
          "type": "uint256"
        },
        {
          "indexed": false,
          "internalType": "uint256",
          "name": "previTokensScalingFactor",
          "type": "uint256"
        },
        {
          "indexed": false,
          "internalType": "uint256",
          "name": "newiTokensScalingFactor",
          "type": "uint256"
        }
      ],
      "name": "Rebase",
      "type": "event"
    },
    {
      "anonymous": false,
      "inputs": [
        {
          "indexed": true,
          "internalType": "address",
          "name": "from",
          "type": "address"
        },
        {
          "indexed": true,
          "internalType": "address",
          "name": "to",
          "type": "address"
        },
        {
          "indexed": false,
          "internalType": "uint256",
          "name": "amount",
          "type": "uint256"
        }
      ],
      "name": "Transfer",
      "type": "event"
    },
    {
      "payable": true,
      "stateMutability": "payable",
      "type": "fallback"
    },
    {
      "constant": true,
      "inputs": [],
      "name": "BASE",
      "outputs": [
        {
          "internalType": "uint256",
          "name": "",
          "type": "uint256"
        }
      ],
      "payable": false,
      "stateMutability": "view",
      "type": "function"
    },
    {
      "constant": true,
      "inputs": [],
      "name": "DELEGATION_TYPEHASH",
      "outputs": [
        {
          "internalType": "bytes32",
          "name": "",
          "type": "bytes32"
        }
      ],
      "payable": false,
      "stateMutability": "view",
      "type": "function"
    },
    {
      "constant": true,
      "inputs": [],
      "name": "DOMAIN_SEPARATOR",
      "outputs": [
        {
          "internalType": "bytes32",
          "name": "",
          "type": "bytes32"
        }
      ],
      "payable": false,
      "stateMutability": "view",
      "type": "function"
    },
    {
      "constant": true,
      "inputs": [],
      "name": "DOMAIN_TYPEHASH",
      "outputs": [
        {
          "internalType": "bytes32",
          "name": "",
          "type": "bytes32"
        }
      ],
      "payable": false,
      "stateMutability": "view",
      "type": "function"
    },
    {
      "constant": true,
      "inputs": [],
      "name": "PERMIT_TYPEHASH",
      "outputs": [
        {
          "internalType": "bytes32",
          "name": "",
          "type": "bytes32"
        }
      ],
      "payable": false,
      "stateMutability": "view",
      "type": "function"
    },
    {
      "constant": true,
      "inputs": [],
      "name": "banker",
      "outputs": [
        {
          "internalType": "address",
          "name": "",
          "type": "address"
        }
      ],
      "payable": false,
      "stateMutability": "view",
      "type": "function"
    },
    {
      "constant": true,
      "inputs": [
        {
          "internalType": "address",
          "name": "",
          "type": "address"
        },
        {
          "internalType": "uint32",
          "name": "",
          "type": "uint32"
        }
      ],
      "name": "checkpoints",
      "outputs": [
        {
          "internalType": "uint32",
          "name": "fromBlock",
          "type": "uint32"
        },
        {
          "internalType": "uint256",
          "name": "votes",
          "type": "uint256"
        }
      ],
      "payable": false,
      "stateMutability": "view",
      "type": "function"
    },
    {
      "constant": true,
      "inputs": [],
      "name": "decimals",
      "outputs": [
        {
          "internalType": "uint8",
          "name": "",
          "type": "uint8"
        }
      ],
      "payable": false,
      "stateMutability": "view",
      "type": "function"
    },
    {
      "constant": true,
      "inputs": [],
      "name": "gov",
      "outputs": [
        {
          "internalType": "address",
          "name": "",
          "type": "address"
        }
      ],
      "payable": false,
      "stateMutability": "view",
      "type": "function"
    },
    {
      "constant": true,
      "inputs": [],
      "name": "implementation",
      "outputs": [
        {
          "internalType": "address",
          "name": "",
          "type": "address"
        }
      ],
      "payable": false,
      "stateMutability": "view",
      "type": "function"
    },
    {
      "constant": true,
      "inputs": [],
      "name": "incentivizer",
      "outputs": [
        {
          "internalType": "address",
          "name": "",
          "type": "address"
        }
      ],
      "payable": false,
      "stateMutability": "view",
      "type": "function"
    },
    {
      "constant": true,
      "inputs": [],
      "name": "initSupply",
      "outputs": [
        {
          "internalType": "uint256",
          "name": "",
          "type": "uint256"
        }
      ],
      "payable": false,
      "stateMutability": "view",
      "type": "function"
    },
    {
      "constant": true,
      "inputs": [],
      "name": "internalDecimals",
      "outputs": [
        {
          "internalType": "uint256",
          "name": "",
          "type": "uint256"
        }
      ],
      "payable": false,
      "stateMutability": "view",
      "type": "function"
    },
    {
      "constant": true,
      "inputs": [],
      "name": "itokensScalingFactor",
      "outputs": [
        {
          "internalType": "uint256",
          "name": "",
          "type": "uint256"
        }
      ],
      "payable": false,
      "stateMutability": "view",
      "type": "function"
    },
    {
      "constant": true,
      "inputs": [],
      "name": "name",
      "outputs": [
        {
          "internalType": "string",
          "name": "",
          "type": "string"
        }
      ],
      "payable": false,
      "stateMutability": "view",
      "type": "function"
    },
    {
      "constant": true,
      "inputs": [
        {
          "internalType": "address",
          "name": "",
          "type": "address"
        }
      ],
      "name": "nonces",
      "outputs": [
        {
          "internalType": "uint256",
          "name": "",
          "type": "uint256"
        }
      ],
      "payable": false,
      "stateMutability": "view",
      "type": "function"
    },
    {
      "constant": true,
      "inputs": [
        {
          "internalType": "address",
          "name": "",
          "type": "address"
        }
      ],
      "name": "numCheckpoints",
      "outputs": [
        {
          "internalType": "uint32",
          "name": "",
          "type": "uint32"
        }
      ],
      "payable": false,
      "stateMutability": "view",
      "type": "function"
    },
    {
      "constant": true,
      "inputs": [],
      "name": "pendingGov",
      "outputs": [
        {
          "internalType": "address",
          "name": "",
          "type": "address"
        }
      ],
      "payable": false,
      "stateMutability": "view",
      "type": "function"
    },
    {
      "constant": true,
      "inputs": [],
      "name": "rebaser",
      "outputs": [
        {
          "internalType": "address",
          "name": "",
          "type": "address"
        }
      ],
      "payable": false,
      "stateMutability": "view",
      "type": "function"
    },
    {
      "constant": true,
      "inputs": [],
      "name": "symbol",
      "outputs": [
        {
          "internalType": "string",
          "name": "",
          "type": "string"
        }
      ],
      "payable": false,
      "stateMutability": "view",
      "type": "function"
    },
    {
      "constant": true,
      "inputs": [],
      "name": "totalSupply",
      "outputs": [
        {
          "internalType": "uint256",
          "name": "",
          "type": "uint256"
        }
      ],
      "payable": false,
      "stateMutability": "view",
      "type": "function"
    },
    {
      "constant": false,
      "inputs": [
        {
          "internalType": "address",
          "name": "implementation_",
          "type": "address"
        },
        {
          "internalType": "bool",
          "name": "allowResign",
          "type": "bool"
        },
        {
          "internalType": "bytes",
          "name": "becomeImplementationData",
          "type": "bytes"
        }
      ],
      "name": "_setImplementation",
      "outputs": [],
      "payable": false,
      "stateMutability": "nonpayable",
      "type": "function"
    },
    {
      "constant": false,
      "inputs": [
        {
          "internalType": "address",
          "name": "to",
          "type": "address"
        },
        {
          "internalType": "uint256",
          "name": "mintAmount",
          "type": "uint256"
        }
      ],
      "name": "mint",
      "outputs": [
        {
          "internalType": "bool",
          "name": "",
          "type": "bool"
        }
      ],
      "payable": false,
      "stateMutability": "nonpayable",
      "type": "function"
    },
    {
      "constant": false,
      "inputs": [
        {
          "internalType": "address",
          "name": "dst",
          "type": "address"
        },
        {
          "internalType": "uint256",
          "name": "amount",
          "type": "uint256"
        }
      ],
      "name": "transfer",
      "outputs": [
        {
          "internalType": "bool",
          "name": "",
          "type": "bool"
        }
      ],
      "payable": false,
      "stateMutability": "nonpayable",
      "type": "function"
    },
    {
      "constant": false,
      "inputs": [
        {
          "internalType": "address",
          "name": "src",
          "type": "address"
        },
        {
          "internalType": "address",
          "name": "dst",
          "type": "address"
        },
        {
          "internalType": "uint256",
          "name": "amount",
          "type": "uint256"
        }
      ],
      "name": "transferFrom",
      "outputs": [
        {
          "internalType": "bool",
          "name": "",
          "type": "bool"
        }
      ],
      "payable": false,
      "stateMutability": "nonpayable",
      "type": "function"
    },
    {
      "constant": false,
      "inputs": [
        {
          "internalType": "uint256",
          "name": "amount",
          "type": "uint256"
        }
      ],
      "name": "burn",
      "outputs": [
        {
          "internalType": "bool",
          "name": "",
          "type": "bool"
        }
      ],
      "payable": false,
      "stateMutability": "nonpayable",
      "type": "function"
    },
    {
      "constant": false,
      "inputs": [
        {
          "internalType": "address",
          "name": "src",
          "type": "address"
        },
        {
          "internalType": "uint256",
          "name": "amount",
          "type": "uint256"
        }
      ],
      "name": "burnFrom",
      "outputs": [
        {
          "internalType": "bool",
          "name": "",
          "type": "bool"
        }
      ],
      "payable": false,
      "stateMutability": "nonpayable",
      "type": "function"
    },
    {
      "constant": false,
      "inputs": [
        {
          "internalType": "address",
          "name": "spender",
          "type": "address"
        },
        {
          "internalType": "uint256",
          "name": "amount",
          "type": "uint256"
        }
      ],
      "name": "approve",
      "outputs": [
        {
          "internalType": "bool",
          "name": "",
          "type": "bool"
        }
      ],
      "payable": false,
      "stateMutability": "nonpayable",
      "type": "function"
    },
    {
      "constant": false,
      "inputs": [
        {
          "internalType": "address",
          "name": "spender",
          "type": "address"
        },
        {
          "internalType": "uint256",
          "name": "addedValue",
          "type": "uint256"
        }
      ],
      "name": "increaseAllowance",
      "outputs": [
        {
          "internalType": "bool",
          "name": "",
          "type": "bool"
        }
      ],
      "payable": false,
      "stateMutability": "nonpayable",
      "type": "function"
    },
    {
      "constant": true,
      "inputs": [],
      "name": "maxScalingFactor",
      "outputs": [
        {
          "internalType": "uint256",
          "name": "",
          "type": "uint256"
        }
      ],
      "payable": false,
      "stateMutability": "view",
      "type": "function"
    },
    {
      "constant": false,
      "inputs": [
        {
          "internalType": "uint256",
          "name": "epoch",
          "type": "uint256"
        },
        {
          "internalType": "uint256",
          "name": "indexDelta",
          "type": "uint256"
        },
        {
          "internalType": "bool",
          "name": "positive",
          "type": "bool"
        }
      ],
      "name": "rebase",
      "outputs": [
        {
          "internalType": "uint256",
          "name": "",
          "type": "uint256"
        }
      ],
      "payable": false,
      "stateMutability": "nonpayable",
      "type": "function"
    },
    {
      "constant": false,
      "inputs": [
        {
          "internalType": "address",
          "name": "spender",
          "type": "address"
        },
        {
          "internalType": "uint256",
          "name": "subtractedValue",
          "type": "uint256"
        }
      ],
      "name": "decreaseAllowance",
      "outputs": [
        {
          "internalType": "bool",
          "name": "",
          "type": "bool"
        }
      ],
      "payable": false,
      "stateMutability": "nonpayable",
      "type": "function"
    },
    {
      "constant": false,
      "inputs": [
        {
          "internalType": "address",
          "name": "owner",
          "type": "address"
        },
        {
          "internalType": "address",
          "name": "spender",
          "type": "address"
        },
        {
          "internalType": "uint256",
          "name": "value",
          "type": "uint256"
        },
        {
          "internalType": "uint256",
          "name": "deadline",
          "type": "uint256"
        },
        {
          "internalType": "uint8",
          "name": "v",
          "type": "uint8"
        },
        {
          "internalType": "bytes32",
          "name": "r",
          "type": "bytes32"
        },
        {
          "internalType": "bytes32",
          "name": "s",
          "type": "bytes32"
        }
      ],
      "name": "permit",
      "outputs": [],
      "payable": false,
      "stateMutability": "nonpayable",
      "type": "function"
    },
    {
      "constant": true,
      "inputs": [
        {
          "internalType": "address",
          "name": "owner",
          "type": "address"
        },
        {
          "internalType": "address",
          "name": "spender",
          "type": "address"
        }
      ],
      "name": "allowance",
      "outputs": [
        {
          "internalType": "uint256",
          "name": "",
          "type": "uint256"
        }
      ],
      "payable": false,
      "stateMutability": "view",
      "type": "function"
    },
    {
      "constant": false,
      "inputs": [
        {
          "internalType": "address",
          "name": "token",
          "type": "address"
        },
        {
          "internalType": "address",
          "name": "to",
          "type": "address"
        },
        {
          "internalType": "uint256",
          "name": "amount",
          "type": "uint256"
        }
      ],
      "name": "rescueTokens",
      "outputs": [
        {
          "internalType": "bool",
          "name": "",
          "type": "bool"
        }
      ],
      "payable": false,
      "stateMutability": "nonpayable",
      "type": "function"
    },
    {
      "constant": true,
      "inputs": [
        {
          "internalType": "address",
          "name": "delegator",
          "type": "address"
        }
      ],
      "name": "delegates",
      "outputs": [
        {
          "internalType": "address",
          "name": "",
          "type": "address"
        }
      ],
      "payable": false,
      "stateMutability": "view",
      "type": "function"
    },
    {
      "constant": true,
      "inputs": [
        {
          "internalType": "address",
          "name": "owner",
          "type": "address"
        }
      ],
      "name": "balanceOf",
      "outputs": [
        {
          "internalType": "uint256",
          "name": "",
          "type": "uint256"
        }
      ],
      "payable": false,
      "stateMutability": "view",
      "type": "function"
    },
    {
      "constant": true,
      "inputs": [
        {
          "internalType": "address",
          "name": "owner",
          "type": "address"
        }
      ],
      "name": "balanceOfUnderlying",
      "outputs": [
        {
          "internalType": "uint256",
          "name": "",
          "type": "uint256"
        }
      ],
      "payable": false,
      "stateMutability": "view",
      "type": "function"
    },
    {
      "constant": false,
      "inputs": [
        {
          "internalType": "address",
          "name": "newPendingGov",
          "type": "address"
        }
      ],
      "name": "_setPendingGov",
      "outputs": [],
      "payable": false,
      "stateMutability": "nonpayable",
      "type": "function"
    },
    {
      "constant": false,
      "inputs": [
        {
          "internalType": "address",
          "name": "rebaser_",
          "type": "address"
        }
      ],
      "name": "_setRebaser",
      "outputs": [],
      "payable": false,
      "stateMutability": "nonpayable",
      "type": "function"
    },
    {
      "constant": false,
      "inputs": [
        {
          "internalType": "address",
          "name": "banker_",
          "type": "address"
        }
      ],
      "name": "_setBanker",
      "outputs": [],
      "payable": false,
      "stateMutability": "nonpayable",
      "type": "function"
    },
    {
      "constant": false,
      "inputs": [
        {
          "internalType": "address",
          "name": "incentivizer_",
          "type": "address"
        }
      ],
      "name": "_setIncentivizer",
      "outputs": [],
      "payable": false,
      "stateMutability": "nonpayable",
      "type": "function"
    },
    {
      "constant": false,
      "inputs": [],
      "name": "_acceptGov",
      "outputs": [],
      "payable": false,
      "stateMutability": "nonpayable",
      "type": "function"
    },
    {
      "constant": true,
      "inputs": [
        {
          "internalType": "address",
          "name": "account",
          "type": "address"
        },
        {
          "internalType": "uint256",
          "name": "blockNumber",
          "type": "uint256"
        }
      ],
      "name": "getPriorVotes",
      "outputs": [
        {
          "internalType": "uint256",
          "name": "",
          "type": "uint256"
        }
      ],
      "payable": false,
      "stateMutability": "view",
      "type": "function"
    },
    {
      "constant": false,
      "inputs": [
        {
          "internalType": "address",
          "name": "delegatee",
          "type": "address"
        },
        {
          "internalType": "uint256",
          "name": "nonce",
          "type": "uint256"
        },
        {
          "internalType": "uint256",
          "name": "expiry",
          "type": "uint256"
        },
        {
          "internalType": "uint8",
          "name": "v",
          "type": "uint8"
        },
        {
          "internalType": "bytes32",
          "name": "r",
          "type": "bytes32"
        },
        {
          "internalType": "bytes32",
          "name": "s",
          "type": "bytes32"
        }
      ],
      "name": "delegateBySig",
      "outputs": [],
      "payable": false,
      "stateMutability": "nonpayable",
      "type": "function"
    },
    {
      "constant": false,
      "inputs": [
        {
          "internalType": "address",
          "name": "delegatee",
          "type": "address"
        }
      ],
      "name": "delegate",
      "outputs": [],
      "payable": false,
      "stateMutability": "nonpayable",
      "type": "function"
    },
    {
      "constant": true,
      "inputs": [
        {
          "internalType": "address",
          "name": "account",
          "type": "address"
        }
      ],
      "name": "getCurrentVotes",
      "outputs": [
        {
          "internalType": "uint256",
          "name": "",
          "type": "uint256"
        }
      ],
      "payable": false,
      "stateMutability": "view",
      "type": "function"
    },
    {
      "constant": true,
      "inputs": [
        {
          "internalType": "uint256",
          "name": "itoken",
          "type": "uint256"
        }
      ],
      "name": "itokenToFragment",
      "outputs": [
        {
          "internalType": "uint256",
          "name": "",
          "type": "uint256"
        }
      ],
      "payable": false,
      "stateMutability": "view",
      "type": "function"
    },
    {
      "constant": true,
      "inputs": [
        {
          "internalType": "uint256",
          "name": "value",
          "type": "uint256"
        }
      ],
      "name": "fragmentToiToken",
      "outputs": [
        {
          "internalType": "uint256",
          "name": "",
          "type": "uint256"
        }
      ],
      "payable": false,
      "stateMutability": "view",
      "type": "function"
    },
    {
      "constant": false,
      "inputs": [
        {
          "internalType": "bytes",
          "name": "data",
          "type": "bytes"
        }
      ],
      "name": "delegateToImplementation",
      "outputs": [
        {
          "internalType": "bytes",
          "name": "",
          "type": "bytes"
        }
      ],
      "payable": false,
      "stateMutability": "nonpayable",
      "type": "function"
    },
    {
      "constant": true,
      "inputs": [
        {
          "internalType": "bytes",
          "name": "data",
          "type": "bytes"
        }
      ],
      "name": "delegateToViewImplementation",
      "outputs": [
        {
          "internalType": "bytes",
          "name": "",
          "type": "bytes"
        }
      ],
      "payable": false,
      "stateMutability": "view",
      "type": "function"
    }
  ],
  "bytecode": "0x60806040523480156200001157600080fd5b506040516200201d3803806200201d833981810160405260c08110156200003757600080fd5b81019080805160405193929190846401000000008211156200005857600080fd5b9083019060208201858111156200006e57600080fd5b82516401000000008111828201881017156200008957600080fd5b82525081516020918201929091019080838360005b83811015620000b85781810151838201526020016200009e565b50505050905090810190601f168015620000e65780820380516001836020036101000a031916815260200191505b50604052602001805160405193929190846401000000008211156200010a57600080fd5b9083019060208201858111156200012057600080fd5b82516401000000008111828201881017156200013b57600080fd5b82525081516020918201929091019080838360005b838110156200016a57818101518382015260200162000150565b50505050905090810190601f168015620001985780820380516001836020036101000a031916815260200191505b50604081815260208301519083015160608401516080909401805192969195919284640100000000821115620001cd57600080fd5b908301906020820185811115620001e357600080fd5b8251640100000000811182820188101715620001fe57600080fd5b82525081516020918201929091019080838360005b838110156200022d57818101518382015260200162000213565b50505050905090810190601f1680156200025b5780820380516001836020036101000a031916815260200191505b5060405250505033600360016101000a8154816001600160a01b0302191690836001600160a01b03160217905550620003d48287878733886040516024018080602001806020018660ff1660ff168152602001856001600160a01b03166001600160a01b03168152602001848152602001838103835288818151815260200191508051906020019080838360005b8381101562000303578181015183820152602001620002e9565b50505050905090810190601f168015620003315780820380516001836020036101000a031916815260200191505b50838103825287518152875160209182019189019080838360005b83811015620003665781810151838201526020016200034c565b50505050905090810190601f168015620003945780820380516001836020036101000a031916815260200191505b5060408051601f198184030181529190526020810180516001600160e01b03908116636c94522160e01b17909152909850620003f8169650505050505050565b50620003ec826000836001600160e01b03620004bf16565b505050505050620006a0565b606060006060846001600160a01b0316846040518082805190602001908083835b602083106200043a5780518252601f19909201916020918201910162000419565b6001836020036101000a038019825116818451168082178552505050505050905001915050600060405180830381855af49150503d80600081146200049c576040519150601f19603f3d011682016040523d82523d6000602084013e620004a1565b606091505b50915091506000821415620004b7573d60208201fd5b949350505050565b60035461010090046001600160a01b031633146200050f5760405162461bcd60e51b815260040180806020018281038252603781526020018062001fe66037913960400191505060405180910390fd5b811562000551576040805160048152602481019091526020810180516001600160e01b0390811663153ab50560e01b179091526200054f91906200067616565b505b601280546001600160a01b038581166001600160a01b0319831617909255604051602060248201818152855160448401528551949093169362000627938693909283926064909201919085019080838360005b83811015620005be578181015183820152602001620005a4565b50505050905090810190601f168015620005ec5780820380516001836020036101000a031916815260200191505b5060408051601f198184030181529190526020810180516001600160e01b03908116630adccee560e31b179091529093506200067616915050565b50601254604080516001600160a01b038085168252909216602083015280517fd604de94d45953f9138079ec1b82d533cb2160c906d1076d1f7ed54befbca97a9281900390910190a150505050565b6012546060906200069a906001600160a01b0316836001600160e01b03620003f816565b92915050565b61193680620006b06000396000f3fe6080604052600436106103345760003560e01c80635c19a95c116101b057806397d63f93116100ec578063cea9d26f11610095578063e7a324dc1161006f578063e7a324dc14610be1578063ec342ad014610bf6578063f1127ed814610c0b578063fa8f34551461067557610334565b8063cea9d26f14610610578063d505accf14610b2e578063dd62ed3e14610b9957610334565b8063a9059cbb116100c6578063a9059cbb146104d3578063b4b5ea571461070c578063c3cda52014610acd57610334565b806397d63f9314610ab857806398dca21014610675578063a457c2d7146104d357610334565b806370a082311161015957806379cc67901161013357806379cc6790146104d35780637af548c114610a2b5780637ecebe0014610a6357806395d89b4114610aa357610334565b806370a082311461070c57806373f03dff14610675578063782d6fe1146109e557610334565b8063661157441161018a57806366115744146105bc5780636fc6407c146109775780636fcfff451461098c57610334565b80635c19a95c146106755780635c60da1b1461094d57806364dd48f51461096257610334565b8063309681a11161027f57806340c10f191161022857806345d1292c1161020257806345d1292c146108295780634bda2e201461083e578063555bcc4014610853578063587cde1e1461092a57610334565b806340c10f19146104d357806342966c681461074c5780634487152f1461077657610334565b80633644e515116102595780633644e515146106f757806339509351146104d35780633af9e6691461070c57610334565b8063309681a11461067557806330adf81f146106b7578063313ce567146106cc57610334565b806312d43a51116102e157806320606b70116102bb57806320606b70146105fb57806323b872dd14610610578063252408101461066057610334565b806312d43a51146105a757806317eae7e9146105bc57806318160ddd146105e657610334565b80630ab9db5b116103125780630ab9db5b1461052d57806311d3e6c41461056b57806311fd8a831461059257610334565b806306fdde03146103965780630933c1ed14610420578063095ea7b3146104d3575b341561038b576040517f08c379a00000000000000000000000000000000000000000000000000000000081526004018080602001828103825260378152602001806118916037913960400191505060405180910390fd5b610393610c77565b50005b3480156103a257600080fd5b506103ab610d0c565b6040805160208082528351818301528351919283929083019185019080838360005b838110156103e55781810151838201526020016103cd565b50505050905090810190601f1680156104125780820380516001836020036101000a031916815260200191505b509250505060405180910390f35b34801561042c57600080fd5b506103ab6004803603602081101561044357600080fd5b81019060208101813564010000000081111561045e57600080fd5b82018360208201111561047057600080fd5b8035906020019184600183028401116401000000008311171561049257600080fd5b91908080601f016020809104026020016040519081016040528093929190818152602001838380828437600092019190915250929550610db7945050505050565b3480156104df57600080fd5b50610519600480360360408110156104f657600080fd5b5073ffffffffffffffffffffffffffffffffffffffff8135169060200135610de3565b604080519115158252519081900360200190f35b34801561053957600080fd5b50610542610df4565b6040805173ffffffffffffffffffffffffffffffffffffffff9092168252519081900360200190f35b34801561057757600080fd5b50610580610e10565b60408051918252519081900360200190f35b34801561059e57600080fd5b50610542610e1e565b3480156105b357600080fd5b50610542610e3a565b3480156105c857600080fd5b50610580600480360360208110156105df57600080fd5b5035610e5b565b3480156105f257600080fd5b50610580610e6b565b34801561060757600080fd5b50610580610e71565b34801561061c57600080fd5b506105196004803603606081101561063357600080fd5b5073ffffffffffffffffffffffffffffffffffffffff813581169160208101359091169060400135610e8c565b34801561066c57600080fd5b50610542610e9e565b34801561068157600080fd5b506106b56004803603602081101561069857600080fd5b503573ffffffffffffffffffffffffffffffffffffffff16610eba565b005b3480156106c357600080fd5b50610580610ec6565b3480156106d857600080fd5b506106e1610eea565b6040805160ff9092168252519081900360200190f35b34801561070357600080fd5b50610580610ef3565b34801561071857600080fd5b506105806004803603602081101561072f57600080fd5b503573ffffffffffffffffffffffffffffffffffffffff16610e5b565b34801561075857600080fd5b506105196004803603602081101561076f57600080fd5b5035610ef9565b34801561078257600080fd5b506103ab6004803603602081101561079957600080fd5b8101906020810181356401000000008111156107b457600080fd5b8201836020820111156107c657600080fd5b803590602001918460018302840111640100000000831117156107e857600080fd5b91908080601f016020809104026020016040519081016040528093929190818152602001838380828437600092019190915250929550610f03945050505050565b34801561083557600080fd5b5061058061119b565b34801561084a57600080fd5b506106b56111a1565b34801561085f57600080fd5b506106b56004803603606081101561087657600080fd5b73ffffffffffffffffffffffffffffffffffffffff8235169160208101351515918101906060810160408201356401000000008111156108b557600080fd5b8201836020820111156108c757600080fd5b803590602001918460018302840111640100000000831117156108e957600080fd5b91908080601f0160208091040260200160405190810160405280939291908181526020018383808284376000920191909152509295506111ac945050505050565b34801561093657600080fd5b506105426004803603602081101561072f57600080fd5b34801561095957600080fd5b50610542611422565b34801561096e57600080fd5b5061058061143e565b34801561098357600080fd5b5061054261144c565b34801561099857600080fd5b506109cc600480360360208110156109af57600080fd5b503573ffffffffffffffffffffffffffffffffffffffff16611468565b6040805163ffffffff9092168252519081900360200190f35b3480156109f157600080fd5b5061058060048036036040811015610a0857600080fd5b5073ffffffffffffffffffffffffffffffffffffffff8135169060200135611480565b348015610a3757600080fd5b5061058060048036036060811015610a4e57600080fd5b50803590602081013590604001351515610e8c565b348015610a6f57600080fd5b5061058060048036036020811015610a8657600080fd5b503573ffffffffffffffffffffffffffffffffffffffff1661148a565b348015610aaf57600080fd5b506103ab61149c565b348015610ac457600080fd5b50610580611512565b348015610ad957600080fd5b506106b5600480360360c0811015610af057600080fd5b5073ffffffffffffffffffffffffffffffffffffffff8135169060208101359060408101359060ff6060820135169060808101359060a00135611518565b348015610b3a57600080fd5b506106b5600480360360e0811015610b5157600080fd5b5073ffffffffffffffffffffffffffffffffffffffff813581169160208101359091169060408101359060608101359060ff6080820135169060a08101359060c00135611529565b348015610ba557600080fd5b5061058060048036036040811015610bbc57600080fd5b5073ffffffffffffffffffffffffffffffffffffffff81358116916020013516611480565b348015610bed57600080fd5b5061058061153b565b348015610c0257600080fd5b50610580611556565b348015610c1757600080fd5b50610c5760048036036040811015610c2e57600080fd5b50803573ffffffffffffffffffffffffffffffffffffffff16906020013563ffffffff16611562565b6040805163ffffffff909316835260208301919091528051918290030190f35b60125460405160609160009173ffffffffffffffffffffffffffffffffffffffff90911690829036908083838082843760405192019450600093509091505080830381855af49150503d8060008114610cec576040519150601f19603f3d011682016040523d82523d6000602084013e610cf1565b606091505b505090506040513d6000823e818015610d08573d82f35b3d82fd5b60018054604080516020600284861615610100027fffffffffffffffffffffffffffffffffffffffffffffffffffffffffffffffff0190941693909304601f81018490048402820184019092528181529291830182828015610daf5780601f10610d8457610100808354040283529160200191610daf565b820191906000526020600020905b815481529060010190602001808311610d9257829003601f168201915b505050505081565b601254606090610ddd9073ffffffffffffffffffffffffffffffffffffffff168361158f565b92915050565b6000610ded610c77565b5092915050565b60075473ffffffffffffffffffffffffffffffffffffffff1681565b6000610e1a61167c565b5090565b60055473ffffffffffffffffffffffffffffffffffffffff1681565b600354610100900473ffffffffffffffffffffffffffffffffffffffff1681565b6000610e6561167c565b50919050565b60085481565b60405180604361184e82396043019050604051809103902081565b6000610e96610c77565b509392505050565b60045473ffffffffffffffffffffffffffffffffffffffff1681565b610ec2610c77565b5050565b7f6e71edae12b1b97f4d1f60370fef10105fa2faae0126114a169c64845d6126c981565b60035460ff1681565b600d5481565b6000610e65610c77565b6060600060603073ffffffffffffffffffffffffffffffffffffffff16846040516024018080602001828103825283818151815260200191508051906020019080838360005b83811015610f61578181015183820152602001610f49565b50505050905090810190601f168015610f8e5780820380516001836020036101000a031916815260200191505b50604080517fffffffffffffffffffffffffffffffffffffffffffffffffffffffffffffffe08184030181529181526020820180517bffffffffffffffffffffffffffffffffffffffffffffffffffffffff167f0933c1ed00000000000000000000000000000000000000000000000000000000178152905182519295509350839250908083835b6020831061105357805182527fffffffffffffffffffffffffffffffffffffffffffffffffffffffffffffffe09092019160209182019101611016565b6001836020036101000a038019825116818451168082178552505050505050905001915050600060405180830381855afa9150503d80600081146110b3576040519150601f19603f3d011682016040523d82523d6000602084013e6110b8565b606091505b509150915060008214156110cd573d60208201fd5b8080602001905160208110156110e257600080fd5b810190808051604051939291908464010000000082111561110257600080fd5b90830190602082018581111561111757600080fd5b825164010000000081118282018810171561113157600080fd5b82525081516020918201929091019080838360005b8381101561115e578181015183820152602001611146565b50505050905090810190601f16801561118b5780820380516001836020036101000a031916815260200191505b5060405250505092505050919050565b60095481565b6111a9610c77565b50565b600354610100900473ffffffffffffffffffffffffffffffffffffffff163314611221576040517f08c379a00000000000000000000000000000000000000000000000000000000081526004018080602001828103825260378152602001806118176037913960400191505060405180910390fd5b8115611289576040805160048152602481019091526020810180517bffffffffffffffffffffffffffffffffffffffffffffffffffffffff167f153ab5050000000000000000000000000000000000000000000000000000000017905261128790610db7565b505b6012805473ffffffffffffffffffffffffffffffffffffffff8581167fffffffffffffffffffffffff000000000000000000000000000000000000000083161790925560405160206024820181815285516044840152855194909316936113c6938693909283926064909201919085019080838360005b83811015611318578181015183820152602001611300565b50505050905090810190601f1680156113455780820380516001836020036101000a031916815260200191505b50604080517fffffffffffffffffffffffffffffffffffffffffffffffffffffffffffffffe08184030181529190526020810180517bffffffffffffffffffffffffffffffffffffffffffffffffffffffff167f56e67728000000000000000000000000000000000000000000000000000000001790529250610db7915050565b506012546040805173ffffffffffffffffffffffffffffffffffffffff8085168252909216602083015280517fd604de94d45953f9138079ec1b82d533cb2160c906d1076d1f7ed54befbca97a9281900390910190a150505050565b60125473ffffffffffffffffffffffffffffffffffffffff1681565b69d3c21bcecceda100000081565b60065473ffffffffffffffffffffffffffffffffffffffff1681565b60106020526000908152604090205463ffffffff1681565b6000610ded61167c565b60116020526000908152604090205481565b600280546040805160206001841615610100027fffffffffffffffffffffffffffffffffffffffffffffffffffffffffffffffff01909316849004601f81018490048402820184019092528181529291830182828015610daf5780601f10610d8457610100808354040283529160200191610daf565b600c5481565b611520610c77565b50505050505050565b611531610c77565b5050505050505050565b60405180603a6118c88239603a019050604051809103902081565b670de0b6b3a764000081565b600f6020908152600092835260408084209091529082529020805460019091015463ffffffff9091169082565b6060600060608473ffffffffffffffffffffffffffffffffffffffff16846040518082805190602001908083835b602083106115fa57805182527fffffffffffffffffffffffffffffffffffffffffffffffffffffffffffffffe090920191602091820191016115bd565b6001836020036101000a038019825116818451168082178552505050505050905001915050600060405180830381855af49150503d806000811461165a576040519150601f19603f3d011682016040523d82523d6000602084013e61165f565b606091505b50915091506000821415611674573d60208201fd5b949350505050565b606060003073ffffffffffffffffffffffffffffffffffffffff166000366040516024018080602001828103825284848281815260200192508082843760008382015260408051601f9092017fffffffffffffffffffffffffffffffffffffffffffffffffffffffffffffffe090811690940182810390940182529283526020810180517bffffffffffffffffffffffffffffffffffffffffffffffffffffffff167f0933c1ed0000000000000000000000000000000000000000000000000000000017815292518151919750955085945091925081905083835b6020831061179457805182527fffffffffffffffffffffffffffffffffffffffffffffffffffffffffffffffe09092019160209182019101611757565b6001836020036101000a038019825116818451168082178552505050505050905001915050600060405180830381855afa9150503d80600081146117f4576040519150601f19603f3d011682016040523d82523d6000602084013e6117f9565b606091505b505090506040513d6000823e818015610d085760403d0360408301f3fe69546f6b656e44656c656761746f723a3a5f736574496d706c656d656e746174696f6e3a2043616c6c6572206d75737420626520676f76454950373132446f6d61696e28737472696e67206e616d652c75696e7432353620636861696e49642c6164647265737320766572696679696e67436f6e74726163742969546f6b656e44656c656761746f723a66616c6c6261636b3a2063616e6e6f742073656e642076616c756520746f2066616c6c6261636b44656c65676174696f6e28616464726573732064656c6567617465652c75696e74323536206e6f6e63652c75696e743235362065787069727929a265627a7a723158206843bc98f7d63c4d4731dc92f93af29d3272cf04da33000390a6ab042caa8fe464736f6c6343000511003269546f6b656e44656c656761746f723a3a5f736574496d706c656d656e746174696f6e3a2043616c6c6572206d75737420626520676f76",
  "source": "pragma solidity 0.5.17;\n\nimport \"./iElasticTokenInterface.sol\";\nimport \"./iTokenDelegate.sol\";\n\ncontract iTokenDelegator is iElasticTokenInterface, iTokenDelegatorInterface {\n    /**\n     * @notice Construct a new iToken\n     * @param name_ ERC-20 name of this token\n     * @param symbol_ ERC-20 symbol of this token\n     * @param decimals_ ERC-20 decimal precision of this token\n     * @param initTotalSupply_ Initial token amount\n     * @param implementation_ The address of the implementation the contract delegates to\n     * @param becomeImplementationData The encoded args for becomeImplementation\n     */\n    constructor(\n        string memory name_,\n        string memory symbol_,\n        uint8 decimals_,\n        uint256 initTotalSupply_,\n        address implementation_,\n        bytes memory becomeImplementationData\n    )\n    public\n    {\n\n\n        // Creator of the contract is gov during initialization\n        gov = msg.sender;\n\n        // First delegate gets to initialize the delegator (i.e. storage contract)\n        delegateTo(\n            implementation_,\n            abi.encodeWithSignature(\n                \"initialize(string,string,uint8,address,uint256)\",\n                name_,\n                symbol_,\n                decimals_,\n                msg.sender,\n                initTotalSupply_\n            )\n        );\n\n        // New implementations always get set via the settor (post-initialize)\n        _setImplementation(implementation_, false, becomeImplementationData);\n\n    }\n\n    /**\n     * @notice Called by the gov to update the implementation of the delegator\n     * @param implementation_ The address of the new implementation for delegation\n     * @param allowResign Flag to indicate whether to call _resignImplementation on the old implementation\n     * @param becomeImplementationData The encoded bytes data to be passed to _becomeImplementation\n     */\n    function _setImplementation(address implementation_, bool allowResign, bytes memory becomeImplementationData) public {\n        require(msg.sender == gov, \"iTokenDelegator::_setImplementation: Caller must be gov\");\n\n        if (allowResign) {\n            delegateToImplementation(abi.encodeWithSignature(\"_resignImplementation()\"));\n        }\n\n        address oldImplementation = implementation;\n        implementation = implementation_;\n\n        delegateToImplementation(abi.encodeWithSignature(\"_becomeImplementation(bytes)\", becomeImplementationData));\n\n        emit NewImplementation(oldImplementation, implementation);\n    }\n\n    /**\n     * @notice Sender supplies assets into the market and receives cTokens in exchange\n     * @dev Accrues interest whether or not the operation succeeds, unless reverted\n     * @param mintAmount The amount of the underlying asset to supply\n     * @return uint 0=success, otherwise a failure (see ErrorReporter.sol for details)\n     */\n    function mint(address to, uint256 mintAmount)\n    external\n    returns (bool)\n    {\n        // Shh\n        to;\n        mintAmount;\n\n        delegateAndReturn();\n    }\n\n    /**\n     * @notice Transfer `amount` tokens from `msg.sender` to `dst`\n     * @param dst The address of the destination account\n     * @param amount The number of tokens to transfer\n     * @return Whether or not the transfer succeeded\n     */\n    function transfer(address dst, uint256 amount)\n    external\n    returns (bool)\n    {\n        // Shh\n        dst;\n        amount;\n\n        delegateAndReturn();\n    }\n\n    /**\n     * @notice Transfer `amount` tokens from `src` to `dst`\n     * @param src The address of the source account\n     * @param dst The address of the destination account\n     * @param amount The number of tokens to transfer\n     * @return Whether or not the transfer succeeded\n     */\n    function transferFrom(\n        address src,\n        address dst,\n        uint256 amount\n    )\n    external\n    returns (bool)\n    {\n        // Shh\n        src;\n        dst;\n        amount;\n\n        delegateAndReturn();\n    }\n\n    /**\n * @notice burn `amount` tokens from `msg.sender`\n * @param amount The number of tokens to burn\n * @return Whether or not the transfer succeeded\n */\n    function burn(uint256 amount)\n    external\n    returns (bool)\n    {\n        // Shh\n        amount;\n\n        delegateAndReturn();\n    }\n\n    /**\n * @notice burnFrom `amount` tokens from `src`\n * @param src The address of the source account\n * @param amount The number of tokens to burn\n * @return Whether or not the transfer succeeded\n */\n    function burnFrom(address src, uint256 amount)\n    external\n    returns (bool)\n    {\n        // Shh\n        src;\n        amount;\n        delegateAndReturn();\n    }\n\n    /**\n     * @notice Approve `spender` to transfer up to `amount` from `src`\n     * @dev This will overwrite the approval amount for `spender`\n     *  and is subject to issues noted [here](https://eips.ethereum.org/EIPS/eip-20#approve)\n     * @param spender The address of the account which may transfer tokens\n     * @param amount The number of tokens that are approved (-1 means infinite)\n     * @return Whether or not the approval succeeded\n     */\n    function approve(\n        address spender,\n        uint256 amount\n    )\n    external\n    returns (bool)\n    {\n        // Shh\n        spender;\n        amount;\n\n        delegateAndReturn();\n    }\n\n    /**\n     * @dev Increase the amount of tokens that an owner has allowed to a spender.\n     * This method should be used instead of approve() to avoid the double approval vulnerability\n     * described above.\n     * @param spender The address which will spend the funds.\n     * @param addedValue The amount of tokens to increase the allowance by.\n     */\n    function increaseAllowance(\n        address spender,\n        uint256 addedValue\n    )\n    external\n    returns (bool)\n    {\n        // Shh\n        spender;\n        addedValue;\n\n        delegateAndReturn();\n    }\n\n    function maxScalingFactor()\n    external\n    view\n    returns (uint256)\n    {\n        delegateToViewAndReturn();\n    }\n\n    function rebase(\n        uint256 epoch,\n        uint256 indexDelta,\n        bool positive\n    )\n    external\n    returns (uint256)\n    {\n        epoch;\n        indexDelta;\n        positive;\n        delegateAndReturn();\n    }\n\n    /**\n     * @dev Decrease the amount of tokens that an owner has allowed to a spender.\n     *\n     * @param spender The address which will spend the funds.\n     * @param subtractedValue The amount of tokens to decrease the allowance by.\n     */\n    function decreaseAllowance(\n        address spender,\n        uint256 subtractedValue\n    )\n    external\n    returns (bool)\n    {\n        // Shh\n        spender;\n        subtractedValue;\n\n        delegateAndReturn();\n    }\n\n    // --- Approve by signature ---\n    function permit(\n        address owner,\n        address spender,\n        uint256 value,\n        uint256 deadline,\n        uint8 v,\n        bytes32 r,\n        bytes32 s\n    )\n    external\n    {\n        // Shh\n        owner;\n        spender;\n        value;\n        deadline;\n        v;\n        r;\n        s;\n\n        delegateAndReturn();\n    }\n\n    /**\n     * @notice Get the current allowance from `owner` for `spender`\n     * @param owner The address of the account which owns the tokens to be spent\n     * @param spender The address of the account which may transfer tokens\n     * @return The number of tokens allowed to be spent (-1 means infinite)\n     */\n    function allowance(\n        address owner,\n        address spender\n    )\n    external\n    view\n    returns (uint256)\n    {\n        // Shh\n        owner;\n        spender;\n\n        delegateToViewAndReturn();\n    }\n\n    /**\n     * @notice Rescues tokens and sends them to the `to` address\n     * @param token The address of the token\n     * @param to The address for which the tokens should be send\n     * @return Success\n     */\n    function rescueTokens(\n        address token,\n        address to,\n        uint256 amount\n    )\n    external\n    returns (bool)\n    {\n        // Shh\n        token;\n        to;\n        amount;\n\n        delegateAndReturn();\n    }\n    /**\n     * @notice Get the current allowance from `owner` for `spender`\n     * @param delegator The address of the account which has designated a delegate\n     * @return Address of delegatee\n     */\n    function delegates(\n        address delegator\n    )\n    external\n    view\n    returns (address)\n    {\n        // Shh\n        delegator;\n\n        delegateToViewAndReturn();\n    }\n\n    /**\n     * @notice Get the token balance of the `owner`\n     * @param owner The address of the account to query\n     * @return The number of tokens owned by `owner`\n     */\n    function balanceOf(address owner)\n    external\n    view\n    returns (uint256)\n    {\n        // Shh\n        owner;\n\n        delegateToViewAndReturn();\n    }\n\n    /**\n     * @notice Currently unused. For future compatability\n     * @param owner The address of the account to query\n     * @return The number of underlying tokens owned by `owner`\n     */\n    function balanceOfUnderlying(address owner)\n    external\n    view\n    returns (uint256)\n    {\n        // Shh\n        owner;\n\n        delegateToViewAndReturn();\n    }\n\n    /*** Gov Functions ***/\n\n    /**\n      * @notice Begins transfer of gov rights. The newPendingGov must call `_acceptGov` to finalize the transfer.\n      * @dev Gov function to begin change of gov. The newPendingGov must call `_acceptGov` to finalize the transfer.\n      * @param newPendingGov New pending gov.\n      */\n    function _setPendingGov(address newPendingGov)\n    external\n    {\n        // Shh\n        newPendingGov;\n\n        delegateAndReturn();\n    }\n\n    function _setRebaser(address rebaser_)\n    external\n    {\n        // Shh\n        rebaser_;\n\n        delegateAndReturn();\n    }\n\n    function _setBanker(address banker_)\n    external\n    {\n        // Shh\n        banker_;\n\n        delegateAndReturn();\n    }\n\n    function _setIncentivizer(address incentivizer_)\n    external\n    {\n        // Shh\n        incentivizer_;\n\n        delegateAndReturn();\n    }\n\n    /**\n      * @notice Accepts transfer of gov rights. msg.sender must be pendingGov\n      * @dev Gov function for pending gov to accept role and update gov\n      * @return uint 0=success, otherwise a failure (see ErrorReporter.sol for details)\n      */\n    function _acceptGov()\n    external\n    {\n        delegateAndReturn();\n    }\n\n\n    function getPriorVotes(address account, uint blockNumber)\n    external\n    view\n    returns (uint256)\n    {\n        account;\n        blockNumber;\n        delegateToViewAndReturn();\n    }\n\n    function delegateBySig(\n        address delegatee,\n        uint nonce,\n        uint expiry,\n        uint8 v,\n        bytes32 r,\n        bytes32 s\n    )\n    external\n    {\n        delegatee;\n        nonce;\n        expiry;\n        v;\n        r;\n        s;\n        delegateAndReturn();\n    }\n\n    function delegate(address delegatee)\n    external\n    {\n        delegatee;\n        delegateAndReturn();\n    }\n\n    function getCurrentVotes(address account) external view returns (uint256)\n    {\n        account;\n        delegateToViewAndReturn();\n    }\n\n    function itokenToFragment(uint256 itoken)\n    external\n    view\n    returns (uint256)\n    {\n        itoken;\n        delegateToViewAndReturn();\n    }\n\n    function fragmentToiToken(uint256 value)\n    external\n    view\n    returns (uint256)\n    {\n        value;\n        delegateToViewAndReturn();\n    }\n\n\n    /**\n     * @notice Internal method to delegate execution to another contract\n     * @dev It returns to the external caller whatever the implementation returns or forwards reverts\n     * @param callee The contract to delegatecall\n     * @param data The raw data to delegatecall\n     * @return The returned bytes from the delegatecall\n     */\n    function delegateTo(address callee, bytes memory data) internal returns (bytes memory) {\n        (bool success, bytes memory returnData) = callee.delegatecall(data);\n        assembly {\n            if eq(success, 0) {\n                revert(add(returnData, 0x20), returndatasize)\n            }\n        }\n        return returnData;\n    }\n\n    /**\n     * @notice Delegates execution to the implementation contract\n     * @dev It returns to the external caller whatever the implementation returns or forwards reverts\n     * @param data The raw data to delegatecall\n     * @return The returned bytes from the delegatecall\n     */\n    function delegateToImplementation(bytes memory data) public returns (bytes memory) {\n        return delegateTo(implementation, data);\n    }\n\n    /**\n     * @notice Delegates execution to an implementation contract\n     * @dev It returns to the external caller whatever the implementation returns or forwards reverts\n     *  There are an additional 2 prefix uints from the wrapper returndata, which we ignore since we make an extra hop.\n     * @param data The raw data to delegatecall\n     * @return The returned bytes from the delegatecall\n     */\n    function delegateToViewImplementation(bytes memory data) public view returns (bytes memory) {\n        (bool success, bytes memory returnData) = address(this).staticcall(abi.encodeWithSignature(\"delegateToImplementation(bytes)\", data));\n        assembly {\n            if eq(success, 0) {\n                revert(add(returnData, 0x20), returndatasize)\n            }\n        }\n        return abi.decode(returnData, (bytes));\n    }\n\n    function delegateToViewAndReturn() private view returns (bytes memory) {\n        (bool success,) = address(this).staticcall(abi.encodeWithSignature(\"delegateToImplementation(bytes)\", msg.data));\n\n        assembly {\n            let free_mem_ptr := mload(0x40)\n            returndatacopy(free_mem_ptr, 0, returndatasize)\n\n            switch success\n            case 0 {revert(free_mem_ptr, returndatasize)}\n            default {return (add(free_mem_ptr, 0x40), sub(returndatasize, 0x40))}\n        }\n    }\n\n    function delegateAndReturn() private returns (bytes memory) {\n        (bool success,) = implementation.delegatecall(msg.data);\n\n        assembly {\n            let free_mem_ptr := mload(0x40)\n            returndatacopy(free_mem_ptr, 0, returndatasize)\n\n            switch success\n            case 0 {revert(free_mem_ptr, returndatasize)}\n            default {return (free_mem_ptr, returndatasize)}\n        }\n    }\n\n    /**\n     * @notice Delegates execution to an implementation contract\n     * @dev It returns to the external caller whatever the implementation returns or forwards reverts\n     */\n    function() external payable {\n        require(msg.value == 0, \"iTokenDelegator:fallback: cannot send value to fallback\");\n\n        // delegate all other functions to current implementation\n        delegateAndReturn();\n    }\n}\n",
  "sourcePath": "/Users/breeze/codespace/eth/itoken-protocol/contracts/elastictokens/iTokenDelegator.sol",
  "compiler": {
    "name": "solc",
    "version": "0.5.17+commit.d19bba13.Emscripten.clang"
  },
  "schemaVersion": "3.3.2",
  "updatedAt": "2020-11-15T12:48:58.974Z",
  "devdoc": {
    "methods": {
      "_acceptGov()": {
        "details": "Gov function for pending gov to accept role and update gov",
        "return": "uint 0=success, otherwise a failure (see ErrorReporter.sol for details)"
      },
      "_setImplementation(address,bool,bytes)": {
        "params": {
          "allowResign": "Flag to indicate whether to call _resignImplementation on the old implementation",
          "becomeImplementationData": "The encoded bytes data to be passed to _becomeImplementation",
          "implementation_": "The address of the new implementation for delegation"
        }
      },
      "_setPendingGov(address)": {
        "details": "Gov function to begin change of gov. The newPendingGov must call `_acceptGov` to finalize the transfer.",
        "params": {
          "newPendingGov": "New pending gov."
        }
      },
      "allowance(address,address)": {
        "params": {
          "owner": "The address of the account which owns the tokens to be spent",
          "spender": "The address of the account which may transfer tokens"
        },
        "return": "The number of tokens allowed to be spent (-1 means infinite)"
      },
      "approve(address,uint256)": {
        "details": "This will overwrite the approval amount for `spender` and is subject to issues noted [here](https://eips.ethereum.org/EIPS/eip-20#approve)",
        "params": {
          "amount": "The number of tokens that are approved (-1 means infinite)",
          "spender": "The address of the account which may transfer tokens"
        },
        "return": "Whether or not the approval succeeded"
      },
      "balanceOf(address)": {
        "params": {
          "owner": "The address of the account to query"
        },
        "return": "The number of tokens owned by `owner`"
      },
      "balanceOfUnderlying(address)": {
        "params": {
          "owner": "The address of the account to query"
        },
        "return": "The number of underlying tokens owned by `owner`"
      },
      "burn(uint256)": {
        "params": {
          "amount": "The number of tokens to burn"
        },
        "return": "Whether or not the transfer succeeded"
      },
      "burnFrom(address,uint256)": {
        "params": {
          "amount": "The number of tokens to burn",
          "src": "The address of the source account"
        },
        "return": "Whether or not the transfer succeeded"
      },
      "constructor": {
        "params": {
          "becomeImplementationData": "The encoded args for becomeImplementation",
          "decimals_": "ERC-20 decimal precision of this token",
          "implementation_": "The address of the implementation the contract delegates to",
          "initTotalSupply_": "Initial token amount",
          "name_": "ERC-20 name of this token",
          "symbol_": "ERC-20 symbol of this token"
        }
      },
      "decreaseAllowance(address,uint256)": {
        "details": "Decrease the amount of tokens that an owner has allowed to a spender.",
        "params": {
          "spender": "The address which will spend the funds.",
          "subtractedValue": "The amount of tokens to decrease the allowance by."
        }
      },
      "delegateToImplementation(bytes)": {
        "details": "It returns to the external caller whatever the implementation returns or forwards reverts",
        "params": {
          "data": "The raw data to delegatecall"
        },
        "return": "The returned bytes from the delegatecall"
      },
      "delegateToViewImplementation(bytes)": {
        "details": "It returns to the external caller whatever the implementation returns or forwards reverts There are an additional 2 prefix uints from the wrapper returndata, which we ignore since we make an extra hop.",
        "params": {
          "data": "The raw data to delegatecall"
        },
        "return": "The returned bytes from the delegatecall"
      },
      "delegates(address)": {
        "params": {
          "delegator": "The address of the account which has designated a delegate"
        },
        "return": "Address of delegatee"
      },
      "increaseAllowance(address,uint256)": {
        "details": "Increase the amount of tokens that an owner has allowed to a spender. This method should be used instead of approve() to avoid the double approval vulnerability described above.",
        "params": {
          "addedValue": "The amount of tokens to increase the allowance by.",
          "spender": "The address which will spend the funds."
        }
      },
      "mint(address,uint256)": {
        "details": "Accrues interest whether or not the operation succeeds, unless reverted",
        "params": {
          "mintAmount": "The amount of the underlying asset to supply"
        },
        "return": "uint 0=success, otherwise a failure (see ErrorReporter.sol for details)"
      },
      "rescueTokens(address,address,uint256)": {
        "params": {
          "to": "The address for which the tokens should be send",
          "token": "The address of the token"
        },
        "return": "Success"
      },
      "transfer(address,uint256)": {
        "params": {
          "amount": "The number of tokens to transfer",
          "dst": "The address of the destination account"
        },
        "return": "Whether or not the transfer succeeded"
      },
      "transferFrom(address,address,uint256)": {
        "params": {
          "amount": "The number of tokens to transfer",
          "dst": "The address of the destination account",
          "src": "The address of the source account"
        },
        "return": "Whether or not the transfer succeeded"
      }
    }
  },
  "userdoc": {
    "methods": {
      "_acceptGov()": {
        "notice": "Accepts transfer of gov rights. msg.sender must be pendingGov"
      },
      "_setImplementation(address,bool,bytes)": {
        "notice": "Called by the gov to update the implementation of the delegator"
      },
      "_setPendingGov(address)": {
        "notice": "Begins transfer of gov rights. The newPendingGov must call `_acceptGov` to finalize the transfer."
      },
      "allowance(address,address)": {
        "notice": "Get the current allowance from `owner` for `spender`"
      },
      "approve(address,uint256)": {
        "notice": "Approve `spender` to transfer up to `amount` from `src`"
      },
      "balanceOf(address)": {
        "notice": "Get the token balance of the `owner`"
      },
      "balanceOfUnderlying(address)": {
        "notice": "Currently unused. For future compatability"
      },
      "burn(uint256)": {
        "notice": "burn `amount` tokens from `msg.sender`"
      },
      "burnFrom(address,uint256)": {
        "notice": "burnFrom `amount` tokens from `src`"
      },
      "constructor": "Construct a new iToken",
      "delegateToImplementation(bytes)": {
        "notice": "Delegates execution to the implementation contract"
      },
      "delegateToViewImplementation(bytes)": {
        "notice": "Delegates execution to an implementation contract"
      },
      "delegates(address)": {
        "notice": "Get the current allowance from `owner` for `spender`"
      },
      "mint(address,uint256)": {
        "notice": "Sender supplies assets into the market and receives cTokens in exchange"
      },
      "rescueTokens(address,address,uint256)": {
        "notice": "Rescues tokens and sends them to the `to` address"
      },
      "transfer(address,uint256)": {
        "notice": "Transfer `amount` tokens from `msg.sender` to `dst`"
      },
      "transferFrom(address,address,uint256)": {
        "notice": "Transfer `amount` tokens from `src` to `dst`"
      }
    }
  }
}